{"abi":[{"type":"constructor","inputs":[{"name":"functionsRouter","type":"address","internalType":"address"},{"name":"donId","type":"bytes32","internalType":"bytes32"},{"name":"secretVersion","type":"uint64","internalType":"uint64"},{"name":"secretSlot","type":"uint8","internalType":"uint8"},{"name":"source","type":"string","internalType":"string"},{"name":"subscriptionId","type":"uint64","internalType":"uint64"},{"name":"_vrfSubscription","type":"uint256","internalType":"uint256"},{"name":"_vrfCoordinator","type":"address","internalType":"address"}],"stateMutability":"nonpayable"},{"type":"function","name":"acceptOwnership","inputs":[],"outputs":[],"stateMutability":"nonpayable"},{"type":"function","name":"checkUpkeep","inputs":[{"name":"","type":"bytes","internalType":"bytes"}],"outputs":[{"name":"upkeepNeeded","type":"bool","internalType":"bool"},{"name":"performData","type":"bytes","internalType":"bytes"}],"stateMutability":"view"},{"type":"function","name":"claimNFT","inputs":[{"name":"_gameId","type":"uint256","internalType":"uint256"}],"outputs":[],"stateMutability":"nonpayable"},{"type":"function","name":"convertAddressToString","inputs":[{"name":"_address","type":"address","internalType":"address"}],"outputs":[{"name":"","type":"string","internalType":"string"}],"stateMutability":"pure"},{"type":"function","name":"createGame","inputs":[{"name":"_startTime","type":"uint256","internalType":"uint256"},{"name":"_endTime","type":"uint256","internalType":"uint256"}],"outputs":[],"stateMutability":"nonpayable"},{"type":"function","name":"createGameDefault","inputs":[],"outputs":[],"stateMutability":"nonpayable"},{"type":"function","name":"createGameWithInterval","inputs":[{"name":"_interval","type":"uint256","internalType":"uint256"}],"outputs":[],"stateMutability":"nonpayable"},{"type":"function","name":"depositNFT","inputs":[{"name":"_gameId","type":"uint256","internalType":"uint256"},{"name":"_nftContract","type":"address","internalType":"address"},{"name":"_tokenId","type":"uint256","internalType":"uint256"}],"outputs":[],"stateMutability":"nonpayable"},{"type":"function","name":"endGame","inputs":[{"name":"_gameId","type":"uint256","internalType":"uint256"}],"outputs":[],"stateMutability":"nonpayable"},{"type":"function","name":"fulfillWinnerMt","inputs":[{"name":"_gameId","type":"uint256","internalType":"uint256"},{"name":"winnerIndex","type":"uint256","internalType":"uint256"}],"outputs":[],"stateMutability":"nonpayable"},{"type":"function","name":"fulfillWinners","inputs":[{"name":"_requestId","type":"uint256","internalType":"uint256"}],"outputs":[],"stateMutability":"nonpayable"},{"type":"function","name":"games","inputs":[{"name":"","type":"uint256","internalType":"uint256"}],"outputs":[{"name":"creator","type":"address","internalType":"address"},{"name":"startTime","type":"uint256","internalType":"uint256"},{"name":"endTime","type":"uint256","internalType":"uint256"},{"name":"isActive","type":"bool","internalType":"bool"},{"name":"nftContract","type":"address","internalType":"address"},{"name":"nftTokenId","type":"uint256","internalType":"uint256"},{"name":"nftClaimed","type":"bool","internalType":"bool"}],"stateMutability":"view"},{"type":"function","name":"getExpiredGames","inputs":[],"outputs":[{"name":"","type":"uint256[]","internalType":"uint256[]"}],"stateMutability":"view"},{"type":"function","name":"getGameCreator","inputs":[{"name":"gameId","type":"uint256","internalType":"uint256"}],"outputs":[{"name":"","type":"address","internalType":"address"}],"stateMutability":"view"},{"type":"function","name":"getGameEndTime","inputs":[{"name":"gameId","type":"uint256","internalType":"uint256"}],"outputs":[{"name":"","type":"uint256","internalType":"uint256"}],"stateMutability":"view"},{"type":"function","name":"getGameIsActive","inputs":[{"name":"gameId","type":"uint256","internalType":"uint256"}],"outputs":[{"name":"","type":"bool","internalType":"bool"}],"stateMutability":"view"},{"type":"function","name":"getGameParticipantScore","inputs":[{"name":"gameId","type":"uint256","internalType":"uint256"},{"name":"participant","type":"address","internalType":"address"}],"outputs":[{"name":"","type":"string","internalType":"string"}],"stateMutability":"view"},{"type":"function","name":"getGameParticipants","inputs":[{"name":"gameId","type":"uint256","internalType":"uint256"}],"outputs":[{"name":"","type":"address[]","internalType":"address[]"}],"stateMutability":"view"},{"type":"function","name":"getGameScores","inputs":[{"name":"gameId","type":"uint256","internalType":"uint256"}],"outputs":[{"name":"","type":"address[]","internalType":"address[]"},{"name":"","type":"string[]","internalType":"string[]"}],"stateMutability":"view"},{"type":"function","name":"getGameStartTime","inputs":[{"name":"gameId","type":"uint256","internalType":"uint256"}],"outputs":[{"name":"","type":"uint256","internalType":"uint256"}],"stateMutability":"view"},{"type":"function","name":"getLastRandomWords","inputs":[],"outputs":[{"name":"","type":"uint256[]","internalType":"uint256[]"}],"stateMutability":"view"},{"type":"function","name":"getLastRequestId","inputs":[],"outputs":[{"name":"","type":"bytes32","internalType":"bytes32"}],"stateMutability":"view"},{"type":"function","name":"getLastResponse","inputs":[],"outputs":[{"name":"","type":"string","internalType":"string"}],"stateMutability":"view"},{"type":"function","name":"getLastScoreRequest","inputs":[],"outputs":[{"name":"","type":"uint256","internalType":"uint256"},{"name":"","type":"address","internalType":"address"}],"stateMutability":"view"},{"type":"function","name":"getScoreResponse","inputs":[{"name":"requestId","type":"bytes32","internalType":"bytes32"}],"outputs":[{"name":"","type":"uint256","internalType":"uint256"},{"name":"","type":"string","internalType":"string"},{"name":"","type":"address","internalType":"address"}],"stateMutability":"view"},{"type":"function","name":"getVrfRequestStatus","inputs":[{"name":"_requestId","type":"uint256","internalType":"uint256"}],"outputs":[{"name":"fulfilled","type":"bool","internalType":"bool"},{"name":"randomWords","type":"uint256[]","internalType":"uint256[]"}],"stateMutability":"view"},{"type":"function","name":"getWinners","inputs":[{"name":"gameId","type":"uint256","internalType":"uint256"}],"outputs":[{"name":"","type":"address[]","internalType":"address[]"}],"stateMutability":"view"},{"type":"function","name":"handleOracleFulfillment","inputs":[{"name":"requestId","type":"bytes32","internalType":"bytes32"},{"name":"response","type":"bytes","internalType":"bytes"},{"name":"err","type":"bytes","internalType":"bytes"}],"outputs":[],"stateMutability":"nonpayable"},{"type":"function","name":"joinGame","inputs":[{"name":"_gameId","type":"uint256","internalType":"uint256"},{"name":"_score","type":"uint256","internalType":"uint256"}],"outputs":[],"stateMutability":"nonpayable"},{"type":"function","name":"nextGameId","inputs":[],"outputs":[{"name":"","type":"uint256","internalType":"uint256"}],"stateMutability":"view"},{"type":"function","name":"owner","inputs":[],"outputs":[{"name":"","type":"address","internalType":"address"}],"stateMutability":"view"},{"type":"function","name":"pause","inputs":[],"outputs":[],"stateMutability":"nonpayable"},{"type":"function","name":"paused","inputs":[],"outputs":[{"name":"","type":"bool","internalType":"bool"}],"stateMutability":"view"},{"type":"function","name":"performUpkeep","inputs":[{"name":"performData","type":"bytes","internalType":"bytes"}],"outputs":[],"stateMutability":"nonpayable"},{"type":"function","name":"rawFulfillRandomWords","inputs":[{"name":"requestId","type":"uint256","internalType":"uint256"},{"name":"randomWords","type":"uint256[]","internalType":"uint256[]"}],"outputs":[],"stateMutability":"nonpayable"},{"type":"function","name":"reclaimNFT","inputs":[{"name":"_gameId","type":"uint256","internalType":"uint256"}],"outputs":[],"stateMutability":"nonpayable"},{"type":"function","name":"requestRandomWords","inputs":[{"name":"_gameId","type":"uint256","internalType":"uint256"}],"outputs":[{"name":"requestId","type":"uint256","internalType":"uint256"}],"stateMutability":"nonpayable"},{"type":"function","name":"requestScoreForParticipant","inputs":[{"name":"_gameId","type":"uint256","internalType":"uint256"},{"name":"participant","type":"address","internalType":"address"}],"outputs":[{"name":"requestId","type":"bytes32","internalType":"bytes32"}],"stateMutability":"nonpayable"},{"type":"function","name":"s_lastError","inputs":[],"outputs":[{"name":"","type":"bytes","internalType":"bytes"}],"stateMutability":"view"},{"type":"function","name":"s_lastRequestId","inputs":[],"outputs":[{"name":"","type":"bytes32","internalType":"bytes32"}],"stateMutability":"view"},{"type":"function","name":"s_lastResponse","inputs":[],"outputs":[{"name":"","type":"bytes","internalType":"bytes"}],"stateMutability":"view"},{"type":"function","name":"s_vrfCoordinator","inputs":[],"outputs":[{"name":"","type":"address","internalType":"contract IVRFCoordinatorV2Plus"}],"stateMutability":"view"},{"type":"function","name":"s_vrfRequests","inputs":[{"name":"","type":"uint256","internalType":"uint256"}],"outputs":[{"name":"fulfilled","type":"bool","internalType":"bool"},{"name":"exists","type":"bool","internalType":"bool"},{"name":"gameId","type":"uint256","internalType":"uint256"}],"stateMutability":"view"},{"type":"function","name":"setCoordinator","inputs":[{"name":"_vrfCoordinator","type":"address","internalType":"address"}],"outputs":[],"stateMutability":"nonpayable"},{"type":"function","name":"transferOwnership","inputs":[{"name":"to","type":"address","internalType":"address"}],"outputs":[],"stateMutability":"nonpayable"},{"type":"function","name":"unpause","inputs":[],"outputs":[],"stateMutability":"nonpayable"},{"type":"function","name":"vrfLastRequestId","inputs":[],"outputs":[{"name":"","type":"uint256","internalType":"uint256"}],"stateMutability":"view"},{"type":"function","name":"vrfRequestIds","inputs":[{"name":"","type":"uint256","internalType":"uint256"}],"outputs":[{"name":"","type":"uint256","internalType":"uint256"}],"stateMutability":"view"},{"type":"event","name":"CheckedUpkeep","inputs":[{"name":"activeGame","type":"bool","indexed":false,"internalType":"bool"},{"name":"hasPassed","type":"bool","indexed":false,"internalType":"bool"},{"name":"hasPlayers","type":"bool","indexed":false,"internalType":"bool"},{"name":"blockTimestamp","type":"uint256","indexed":false,"internalType":"uint256"}],"anonymous":false},{"type":"event","name":"CoordinatorSet","inputs":[{"name":"vrfCoordinator","type":"address","indexed":false,"internalType":"address"}],"anonymous":false},{"type":"event","name":"GameCreated","inputs":[{"name":"gameId","type":"uint256","indexed":true,"internalType":"uint256"},{"name":"startTime","type":"uint256","indexed":false,"internalType":"uint256"},{"name":"endTime","type":"uint256","indexed":false,"internalType":"uint256"}],"anonymous":false},{"type":"event","name":"GameEnded","inputs":[{"name":"gameId","type":"uint256","indexed":true,"internalType":"uint256"}],"anonymous":false},{"type":"event","name":"NFTClaimed","inputs":[{"name":"gameId","type":"uint256","indexed":true,"internalType":"uint256"},{"name":"winner","type":"address","indexed":true,"internalType":"address"}],"anonymous":false},{"type":"event","name":"NFTDeposited","inputs":[{"name":"gameId","type":"uint256","indexed":true,"internalType":"uint256"},{"name":"nftContract","type":"address","indexed":true,"internalType":"address"},{"name":"tokenId","type":"uint256","indexed":false,"internalType":"uint256"},{"name":"depositor","type":"address","indexed":true,"internalType":"address"}],"anonymous":false},{"type":"event","name":"NFTReclaimed","inputs":[{"name":"gameId","type":"uint256","indexed":true,"internalType":"uint256"},{"name":"winner","type":"address","indexed":true,"internalType":"address"}],"anonymous":false},{"type":"event","name":"OwnershipTransferRequested","inputs":[{"name":"from","type":"address","indexed":true,"internalType":"address"},{"name":"to","type":"address","indexed":true,"internalType":"address"}],"anonymous":false},{"type":"event","name":"OwnershipTransferred","inputs":[{"name":"from","type":"address","indexed":true,"internalType":"address"},{"name":"to","type":"address","indexed":true,"internalType":"address"}],"anonymous":false},{"type":"event","name":"ParticipantJoinedGame","inputs":[{"name":"gameId","type":"uint256","indexed":true,"internalType":"uint256"},{"name":"participant","type":"address","indexed":true,"internalType":"address"}],"anonymous":false},{"type":"event","name":"Paused","inputs":[{"name":"account","type":"address","indexed":false,"internalType":"address"}],"anonymous":false},{"type":"event","name":"RequestFulfilled","inputs":[{"name":"id","type":"bytes32","indexed":true,"internalType":"bytes32"}],"anonymous":false},{"type":"event","name":"RequestSent","inputs":[{"name":"id","type":"bytes32","indexed":true,"internalType":"bytes32"}],"anonymous":false},{"type":"event","name":"Response","inputs":[{"name":"requestId","type":"bytes32","indexed":true,"internalType":"bytes32"},{"name":"response","type":"bytes","indexed":false,"internalType":"bytes"},{"name":"err","type":"bytes","indexed":false,"internalType":"bytes"}],"anonymous":false},{"type":"event","name":"Score","inputs":[{"name":"gameId","type":"uint256","indexed":true,"internalType":"uint256"},{"name":"participant","type":"address","indexed":true,"internalType":"address"},{"name":"score","type":"uint256","indexed":false,"internalType":"uint256"}],"anonymous":false},{"type":"event","name":"Unpaused","inputs":[{"name":"account","type":"address","indexed":false,"internalType":"address"}],"anonymous":false},{"type":"event","name":"VrfRequestFulfilled","inputs":[{"name":"requestId","type":"uint256","indexed":false,"internalType":"uint256"},{"name":"gameId","type":"uint256","indexed":false,"internalType":"uint256"}],"anonymous":false},{"type":"event","name":"VrfRequestSent","inputs":[{"name":"requestId","type":"uint256","indexed":false,"internalType":"uint256"},{"name":"numWords","type":"uint32","indexed":false,"internalType":"uint32"}],"anonymous":false},{"type":"event","name":"WinnerFulfilled","inputs":[{"name":"gameId","type":"uint256","indexed":true,"internalType":"uint256"},{"name":"winnerIndex","type":"uint256","indexed":true,"internalType":"uint256"}],"anonymous":false},{"type":"error","name":"EmptyArgs","inputs":[]},{"type":"error","name":"EmptySource","inputs":[]},{"type":"error","name":"EnforcedPause","inputs":[]},{"type":"error","name":"ExpectedPause","inputs":[]},{"type":"error","name":"GameDoesNotExist","inputs":[{"name":"gameId","type":"uint256","internalType":"uint256"}]},{"type":"error","name":"NoInlineSecrets","inputs":[]},{"type":"error","name":"OnlyCoordinatorCanFulfill","inputs":[{"name":"have","type":"address","internalType":"address"},{"name":"want","type":"address","internalType":"address"}]},{"type":"error","name":"OnlyOwnerOrCoordinator","inputs":[{"name":"have","type":"address","internalType":"address"},{"name":"owner","type":"address","internalType":"address"},{"name":"coordinator","type":"address","internalType":"address"}]},{"type":"error","name":"OnlyRouterCanFulfill","inputs":[]},{"type":"error","name":"ParticipantAlreadyInGame","inputs":[{"name":"gameId","type":"uint256","internalType":"uint256"},{"name":"participant","type":"address","internalType":"address"}]},{"type":"error","name":"Raffle__UpkeepNotNeeded","inputs":[]},{"type":"error","name":"StringsInsufficientHexLength","inputs":[{"name":"value","type":"uint256","internalType":"uint256"},{"name":"length","type":"uint256","internalType":"uint256"}]},{"type":"error","name":"UnexpectedRequestID","inputs":[{"name":"requestId","type":"bytes32","internalType":"bytes32"}]},{"type":"error","name":"ZeroAddress","inputs":[]}],"bytecode":{"object":"0x60c06040527f1770bdc7eec7771f7ba4ffd640f34260d7f095b79c92d34a5b2551d6f6cfd2be600855600980546001600160501b03191666020003002625a01790556000600b553480156200005357600080fd5b50604051620049b9380380620049b98339810160408190526200007691620002de565b6001600160a01b0388166080528181803380600081620000dd5760405162461bcd60e51b815260206004820152601860248201527f43616e6e6f7420736574206f776e657220746f207a65726f000000000000000060448201526064015b60405180910390fd5b600080546001600160a01b0319166001600160a01b038481169190911790915581161562000110576200011081620001e8565b5050506001600160a01b0381166200013b5760405163d92e233d60e01b815260040160405180910390fd5b600280546001600160a01b03199081166001600160a01b0393841617909155600480548216938316939093179092556005929092556009805460ff60501b1916905560108054909116918a169190911790556012879055601480546001600160401b0388166001600160481b0319909116176801000000000000000060ff8816021790556011620001cd8582620004ba565b5050506001600160401b031660a05250620005869350505050565b336001600160a01b03821603620002425760405162461bcd60e51b815260206004820152601760248201527f43616e6e6f74207472616e7366657220746f2073656c660000000000000000006044820152606401620000d4565b600180546001600160a01b0319166001600160a01b0383811691821790925560008054604051929316917fed8889f560326eb138920d842192f0eb3dd22b4f139c87a2c57538e05bae12789190a350565b80516001600160a01b0381168114620002ab57600080fd5b919050565b80516001600160401b0381168114620002ab57600080fd5b634e487b7160e01b600052604160045260246000fd5b600080600080600080600080610100898b031215620002fc57600080fd5b620003078962000293565b97506020808a015197506200031f60408b01620002b0565b965060608a015160ff811681146200033657600080fd5b60808b01519096506001600160401b03808211156200035457600080fd5b818c0191508c601f8301126200036957600080fd5b8151818111156200037e576200037e620002c8565b604051601f8201601f19908116603f01168101908382118183101715620003a957620003a9620002c8565b816040528281528f86848701011115620003c257600080fd5b600093505b82841015620003e65784840186015181850187015292850192620003c7565b60008684830101528099505050505050506200040560a08a01620002b0565b925060c089015191506200041c60e08a0162000293565b90509295985092959890939650565b600181811c908216806200044057607f821691505b6020821081036200046157634e487b7160e01b600052602260045260246000fd5b50919050565b601f821115620004b557600081815260208120601f850160051c81016020861015620004905750805b601f850160051c820191505b81811015620004b1578281556001016200049c565b5050505b505050565b81516001600160401b03811115620004d657620004d6620002c8565b620004ee81620004e784546200042b565b8462000467565b602080601f8311600181146200052657600084156200050d5750858301515b600019600386901b1c1916600185901b178555620004b1565b600085815260208120601f198616915b82811015620005575788860151825594840194600190910190840162000536565b5085821015620005765787850151600019600388901b60f8161c191681555b5050505050600190811b01905550565b60805160a051614406620005b360003960006114800152600081816108a70152612e5101526144066000f3fe608060405234801561001057600080fd5b50600436106102a05760003560e01c80636e04ff0d11610167578063b131d053116100ce578063d0399bb811610087578063d0399bb814610700578063d03ae0aa14610713578063eb15d79a14610735578063ee7bdc4f1461073d578063f2fde38b14610760578063fe5c873a1461077357600080fd5b8063b131d0531461069d578063b135bbb0146106c0578063b1e21749146106c9578063b60b9fcb146106d2578063bc85777c146106e5578063c0722c99146106f857600080fd5b80638456cb59116101205780638456cb59146106385780638a8da05b146106405780638da5cb5b146106535780638ea98117146106645780639eccacf614610677578063a08db82e1461068a57600080fd5b80636e04ff0d1461059f5780636f6410fd146105c057806379ba5097146105d35780637ad40c86146105db5780637d058d4f1461061c5780637d6f643b1461062557600080fd5b80634585e33b1161020b57806355985b8f116101c457806355985b8f146105205780635ab59312146105415780635c975abb1461055457806360104cef146105665780636554e38a146105795780636b1426a41461058c57600080fd5b80634585e33b1461048b57806345fa95491461049e57806347828219146104be5780634b0795a8146104d1578063503f0475146104d95780635455d59c146104e157600080fd5b80631fe543e31161025d5780631fe543e3146103e25780632da27092146103f55780633944ea3a146104465780633c256b241461045b5780633f4ba83a14610470578063425c9fa21461047857600080fd5b80630411ac75146102a557806307119431146102ba5780630ca76175146102e4578063117a5b90146102f7578063185e21871461039a57806319c2b4c3146103d0575b600080fd5b6102b86102b3366004613931565b610786565b005b6102cd6102c8366004613931565b610799565b6040516102db929190613985565b60405180910390f35b6102b86102f2366004613a42565b61089c565b610353610305366004613931565b600a60208190526000918252604090912080546001820154600283015460038401546008850154600986015495909601546001600160a01b03948516969395929460ff928316941692911687565b604080516001600160a01b03988916815260208101979097528601949094529115156060850152909316608083015260a082019290925290151560c082015260e0016102db565b6103c06103a8366004613931565b6000908152600a602052604090206003015460ff1690565b60405190151581526020016102db565b600d545b6040519081526020016102db565b6102b86103f0366004613aae565b610920565b610429610403366004613931565b6003602052600090815260409020805460029091015460ff808316926101009004169083565b6040805193151584529115156020840152908201526060016102db565b61044e610970565b6040516102db9190613b72565b6104636109fe565b6040516102db9190613b85565b6102b8610a64565b6103d4610486366004613931565b610a76565b6102b8610499366004613b98565b610a97565b6104b16104ac366004613931565b610b0f565b6040516102db9190613c42565b6102b86104cc366004613c55565b610b7e565b61044e610d85565b61044e610d92565b600d54600090815260156020526040902080546001909101546001600160a01b0316604080519283526001600160a01b039091166020830152016102db565b61053361052e366004613931565b610e1b565b6040516102db929190613c77565b61044e61054f366004613d00565b611004565b600954600160501b900460ff166103c0565b6102b8610574366004613c55565b611015565b6103d4610587366004613d1b565b611147565b6104b161059a366004613931565b611507565b6105b26105ad366004613d47565b611574565b6040516102db929190613d7b565b61044e6105ce366004613d1b565b611632565b6102b86116ec565b6106046105e9366004613931565b6000908152600a60205260409020546001600160a01b031690565b6040516001600160a01b0390911681526020016102db565b6103d460075481565b6102b8610633366004613d96565b611796565b6102b8611978565b6102b861064e366004613931565b611988565b6000546001600160a01b0316610604565b6102b8610672366004613d00565b611ac7565b600254610604906001600160a01b031681565b6102b8610698366004613931565b611bb9565b6103d46106ab366004613931565b6000908152600a602052604090206001015490565b6103d4600b5481565b6103d4600d5481565b6102b86106e0366004613c55565b611db0565b6103d46106f3366004613931565b611fd7565b6102b86121d3565b6102b861070e366004613931565b6121e3565b610726610721366004613931565b612312565b6040516102db93929190613dcb565b6104636123d9565b6103d461074b366004613931565b6000908152600a602052604090206002015490565b6102b861076e366004613d00565b6124d7565b6102b8610781366004613931565b6124eb565b610794426105748382613e12565b600c55565b600081815260036020526040812054606090610100900460ff166107f85760405162461bcd60e51b81526020600482015260116024820152701c995c5d595cdd081b9bdd08199bdd5b99607a1b60448201526064015b60405180910390fd5b60008381526003602090815260408083208151608081018352815460ff808216151583526101009091041615158185015260018201805484518187028101870186528181529295939486019383018282801561087357602002820191906000526020600020905b81548152602001906001019080831161085f575b505050505081526020016002820154815250509050806000015181604001519250925050915091565b336001600160a01b037f000000000000000000000000000000000000000000000000000000000000000016146108e55760405163c6829f8360e01b815260040160405180910390fd5b6108f08383836127a7565b60405183907f85e1543bf2f84fe80c6badbce3648c8539ad1df4d2b3d822938ca0538be727e690600090a2505050565b6002546001600160a01b031633146109605760025460405163073e64fd60e21b81523360048201526001600160a01b0390911660248201526044016107ef565b61096b8383836128b8565b505050565b600e805461097d90613e25565b80601f01602080910402602001604051908101604052809291908181526020018280546109a990613e25565b80156109f65780601f106109cb576101008083540402835291602001916109f6565b820191906000526020600020905b8154815290600101906020018083116109d957829003601f168201915b505050505081565b600754600090815260036020908152604091829020600101805483518184028101840190945280845260609392830182828015610a5a57602002820191906000526020600020905b815481526020019060010190808311610a46575b5050505050905090565b610a6c6129e9565b610a74612a3c565b565b60068181548110610a8657600080fd5b600091825260209091200154905081565b6000808080610aa885870187613e6f565b93509350935093507ffbd4dd195fd0b96a07b166a978fd395f5a414e87941d8a1c653eae647242a6b984848484604051610aff94939291909315158452911515602084015215156040830152606082015260800190565b60405180910390a1505050505050565b6000818152600a6020908152604091829020600401805483518184028101840190945280845260609392830182828015610b7257602002820191906000526020600020905b81546001600160a01b03168152600190910190602001808311610b54575b50505050509050919050565b610b866129e9565b6000828152600a602052604090206003015460ff1615610be05760405162461bcd60e51b815260206004820152601560248201527423b0b6b29034b99039ba34b6361030b1ba34bb329760591b60448201526064016107ef565b6000828152600a6020526040902060040154610c375760405162461bcd60e51b81526020600482015260166024820152752737903830b93a34b1b4b830b73a39903337bab7321760511b60448201526064016107ef565b6000828152600a602052604090206007015415610c8f5760405162461bcd60e51b81526020600482015260166024820152752bb4b73732b9399030b63932b0b23c903337bab7321760511b60448201526064016107ef565b6000828152600a60205260409020600401548110610cef5760405162461bcd60e51b815260206004820152601a60248201527f57696e6e657220696e646578206f7574206f6620626f756e647300000000000060448201526064016107ef565b6000828152600a6020526040902060048101805460079092019183908110610d1957610d19613eba565b6000918252602080832090910154835460018101855593835290822090920180546001600160a01b0319166001600160a01b0390931692909217909155604051829184917f77b599fb56acd5a19d4eac13cb5da247718c5f24068b408fc99fbfcb85ebd8909190a35050565b600f805461097d90613e25565b6060600e8054610da190613e25565b80601f0160208091040260200160405190810160405280929190818152602001828054610dcd90613e25565b8015610a5a5780601f10610def57610100808354040283529160200191610a5a565b820191906000526020600020905b815481529060010190602001808311610dfd57509395945050505050565b6060806000600a6000858152602001908152602001600020600401805480602002602001604051908101604052809291908181526020018280548015610e8a57602002820191906000526020600020905b81546001600160a01b03168152600190910190602001808311610e6c575b50505050509050600081516001600160401b03811115610eac57610eac6139a0565b604051908082528060200260200182016040528015610edf57816020015b6060815260200190600190039081610eca5790505b50905060005b8251811015610ff957600a60008781526020019081526020016000206006016000848381518110610f1857610f18613eba565b60200260200101516001600160a01b03166001600160a01b031681526020019081526020016000208054610f4b90613e25565b80601f0160208091040260200160405190810160405280929190818152602001828054610f7790613e25565b8015610fc45780601f10610f9957610100808354040283529160200191610fc4565b820191906000526020600020905b815481529060010190602001808311610fa757829003601f168201915b5050505050828281518110610fdb57610fdb613eba565b60200260200101819052508080610ff190613ed0565b915050610ee5565b509094909350915050565b606061100f82612a91565b92915050565b81811161106f5760405162461bcd60e51b815260206004820152602260248201527f456e642074696d65206d7573742062652061667465722073746172742074696d604482015261329760f11b60648201526084016107ef565b600b546000908152600a6020908152604080832080546001600160a01b0319163317815560018082018790556002820186905560038201805460ff19169091179055815193845291830190819052915190916110d09160048401919061380c565b5060408051600081526020810191829052516110f091600784019161380c565b50600b5460408051858152602081018590527fbd3f84a55fdc44f970adc6ccbaa93e78d7da5f3fc37c4b7da578d47c9ad2e46a910160405180910390a2600b805490600061113d83613ed0565b9190505550505050565b6000828152600a602090815260408083206001600160a01b03851684526005019091528120548390839060ff166111d95760405162461bcd60e51b815260206004820152603060248201527f476976656e2061646472657373206973206e6f7420612070617274696369706160448201526f373a1034b7103a3434b99033b0b6b29760811b60648201526084016107ef565b6000858152600a602052604090206003015460ff1661120a5760405162461bcd60e51b81526004016107ef90613ee9565b6000858152600a6020526040902060010154421080159061123c57506000858152600a60205260409020600201544211155b6112925760405162461bcd60e51b815260206004820152602160248201527f47616d65206973206e6f742077697468696e2061637469766520706572696f646044820152601760f91b60648201526084016107ef565b6000858152600a60205260409020546001600160a01b0316331461130d5760405162461bcd60e51b815260206004820152602c60248201527f4f6e6c79207468652067616d652063726561746f722063616e2072657175657360448201526b3a103a34329039b1b7b9329760a11b60648201526084016107ef565b61134e6040805160e0810190915280600081526020016000815260200160008152602001606081526020016060815260200160608152602001606081525090565b6113eb6011805461135e90613e25565b80601f016020809104026020016040519081016040528092919081815260200182805461138a90613e25565b80156113d75780601f106113ac576101008083540402835291602001916113d7565b820191906000526020600020905b8154815290600101906020018083116113ba57829003601f168201915b505050505082612aa790919063ffffffff16565b60408051600280825260608201909252600091816020015b606081526020019060019003908161140357905050905061142387612ab8565b8160008151811061143657611436613eba565b602002602001018190525061144a86611004565b8160018151811061145d5761145d613eba565b60209081029190910101526114728282612b4a565b6114ab61147e83612b74565b7f0000000000000000000000000000000000000000000000000000000000000000620493e0601254612e4c565b600d818155604080518082018252998a526001600160a01b039889166020808c019182526000948552601590529220985189559051600190980180546001600160a01b0319169890971697909717909555505092549392505050565b6000818152600a6020908152604091829020600701805483518184028101840190945280845260609392830182828015610b72576020028201919060005260206000209081546001600160a01b03168152600190910190602001808311610b545750505050509050919050565b60006060815b600b5481101561162c576000818152600a602052604081206003810154600c5460019092015460ff9091169291906115b29042613f16565b6000858152600a60205260409020600401549110915015158280156115d45750805b156116165760408051841515602082015283151591810191909152811515606082015242608082015260a0016040516020818303038152906040529450600195505b505050808061162490613ed0565b91505061157a565b50915091565b6000828152600a602090815260408083206001600160a01b0385168452600601909152902080546060919061166690613e25565b80601f016020809104026020016040519081016040528092919081815260200182805461169290613e25565b80156116df5780601f106116b4576101008083540402835291602001916116df565b820191906000526020600020905b8154815290600101906020018083116116c257829003601f168201915b5050505050905092915050565b6001546001600160a01b0316331461173f5760405162461bcd60e51b815260206004820152601660248201527526bab9ba10313290383937b837b9b2b21037bbb732b960511b60448201526064016107ef565b60008054336001600160a01b0319808316821784556001805490911690556040516001600160a01b0390921692909183917f8be0079c531659141344cd1fd0a4f28419497f9722a3daafe3b4186f6b6457e091a350565b6000838152600a60205260409020546001600160a01b0316331461180f5760405162461bcd60e51b815260206004820152602a60248201527f4f6e6c79207468652067616d652063726561746f722063616e206465706f73696044820152693a103a34329027232a1760b11b60648201526084016107ef565b6000838152600a602052604090206003015460ff166118405760405162461bcd60e51b81526004016107ef90613ee9565b6000838152600a602052604090206002015442106118945760405162461bcd60e51b815260206004820152601160248201527023b0b6b2903430b99032bc3834b932b21760791b60448201526064016107ef565b6040516323b872dd60e01b8152336004820152306024820152604481018290526001600160a01b038316906323b872dd90606401600060405180830381600087803b1580156118e257600080fd5b505af11580156118f6573d6000803e3d6000fd5b5050506000848152600a60208181526040928390206008810180546001600160a01b0319166001600160a01b038916908117909155600982018790559201805460ff191690559151848152339350909186917f8e0fba0f28f504542af1cd9bf5b599299bd212bd44a7dc5c5658010e13ffd31e910160405180910390a4505050565b6119806129e9565b610a74612f1e565b6119906129e9565b6000818152600360209081526040808320600101805482518185028101850190935280835291929091908301828280156119e957602002820191906000526020600020905b8154815260200190600101908083116119d5575b5050506000858152600360205260408120600201549394509150505b8251811015611ac1576000828152600a60205260408120600401548451859084908110611a3457611a34613eba565b6020026020010151611a469190613f29565b6000848152600a6020526040902060048101805492935060079091019183908110611a7357611a73613eba565b60009182526020808320909101548354600181018555938352912090910180546001600160a01b0319166001600160a01b039092169190911790555080611ab981613ed0565b915050611a05565b50505050565b6000546001600160a01b03163314801590611aed57506002546001600160a01b03163314155b15611b3e5733611b056000546001600160a01b031690565b60025460405163061db9c160e01b81526001600160a01b03938416600482015291831660248301529190911660448201526064016107ef565b6001600160a01b038116611b655760405163d92e233d60e01b815260040160405180910390fd5b600280546001600160a01b0319166001600160a01b0383169081179091556040519081527fd1a6a14209a385a964d036e404cb5cfb71f4000cdb03c9366292430787261be69060200160405180910390a150565b6000818152600a60205260409020546001600160a01b03163314611c325760405162461bcd60e51b815260206004820152602a60248201527f4f6e6c79207468652067616d652063726561746f722063616e207265636c616960448201526936903a34329027232a1760b11b60648201526084016107ef565b6000818152600a602052604090206003015460ff1615611c8c5760405162461bcd60e51b815260206004820152601560248201527423b0b6b29034b99039ba34b6361030b1ba34bb329760591b60448201526064016107ef565b6000818152600a60208190526040909120015460ff1615611ce65760405162461bcd60e51b815260206004820152601460248201527327232a1030b63932b0b23c9031b630b4b6b2b21760611b60448201526064016107ef565b6000818152600a602052604090819020600881015460099091015491516323b872dd60e01b815230600482015233602482015260448101929092526001600160a01b0316906323b872dd90606401600060405180830381600087803b158015611d4e57600080fd5b505af1158015611d62573d6000803e3d6000fd5b5050506000828152600a60208190526040808320909101805460ff191660011790555133925083917f56c922176dd9b2a1fdcf8a3aa048b543fc88a2750fcd5341c0b635bb9d11f81791a350565b6000828152600a602052604090206003015460ff16611de15760405162461bcd60e51b81526004016107ef90613ee9565b6000828152600a6020526040902060010154421015611e425760405162461bcd60e51b815260206004820152601960248201527f47616d6520686173206e6f742073746172746564207965742e0000000000000060448201526064016107ef565b6000828152600a6020526040902060020154421115611ea35760405162461bcd60e51b815260206004820152601760248201527f47616d652068617320616c726561647920656e6465642e00000000000000000060448201526064016107ef565b6000828152600a6020908152604080832033845260050190915290205460ff161515600103611eee5760405163547daa4560e11b8152600481018390523360248201526044016107ef565b6000828152600a60209081526040808320600481018054600181810183559186528486200180546001600160a01b0319163390811790915585526005909101909252909120805460ff19169091179055611f4781612ab8565b6000838152600a60209081526040808320338452600601909152902090611f6e9082613f99565b50604051339083907f094906a9ec808476f8ae6475fedc23cbe15d386768dec2d2c9a604c69f66b96090600090a3604051818152339083907f7f6232e56f99882679dee2e75a9c85c9491c7c7f70fd53590e8c0f87d3e1b2959060200160405180910390a35050565b6000611fe16129e9565b6004546040805160c081018252600854815260055460208083019190915260095461ffff6401000000008204168385015263ffffffff808216606085015266010000000000009091041660808301528251908101909252600082526001600160a01b0390921691639b1c385e9160a082019061205c90612f61565b8152506040518263ffffffff1660e01b815260040161207b9190614058565b6020604051808303816000875af115801561209a573d6000803e3d6000fd5b505050506040513d601f19601f820116820180604052508101906120be91906140b5565b6040805160808101825260008082526001602080840182815285518481528083018752858701908152606086018a9052878552600383529590932084518154945161ffff1990951690151561ff0019161761010094151594909402939093178355935180519596509294919361213a9391850192910190613871565b5060609190910151600290910155600680546001810182556000919091527ff652222313e28459528d920b65115c16c04f3efc82aaedc97be59f3f377c0d3f01819055600781905560095460408051838152660100000000000090920463ffffffff1660208301527fb478b40bf0d6ab2120b57e456db91df45395850da43f8b7a6f16c4b0568e17b8910160405180910390a15b919050565b610a744261057481610e10613e12565b6000818152600a60205260409020546001600160a01b031633148061221257506000546001600160a01b031633145b61226e5760405162461bcd60e51b815260206004820152602760248201527f4f6e6c79207468652067616d652063726561746f722063616e20656e64207468604482015266329033b0b6b29760c91b60648201526084016107ef565b6000818152600a602052604090206003015460ff166122cf5760405162461bcd60e51b815260206004820152601960248201527f47616d6520697320616c726561647920696e6163746976652e0000000000000060448201526064016107ef565b6000818152600a6020526040808220600301805460ff191690555182917fce24807f7e4b60b4e641462f13029fa5e5f79075bbc3f8e5cd43ecd19661d76091a250565b60008181526016602052604081208054600282015460019092018054606093859392916001600160a01b0390911690829061234c90613e25565b80601f016020809104026020016040519081016040528092919081815260200182805461237890613e25565b80156123c55780601f1061239a576101008083540402835291602001916123c5565b820191906000526020600020905b8154815290600101906020018083116123a857829003601f168201915b505050505091509250925092509193909250565b60606000805b600b54811015612422576000818152600a6020526040902060020154421115612410578161240c81613ed0565b9250505b8061241a81613ed0565b9150506123df565b506000816001600160401b0381111561243d5761243d6139a0565b604051908082528060200260200182016040528015612466578160200160208202803683370190505b5090506000805b600b548110156124ce576000818152600a60205260409020600201544211156124bc57808383815181106124a3576124a3613eba565b6020908102919091010152816124b881613ed0565b9250505b806124c681613ed0565b91505061246d565b50909392505050565b6124df6129e9565b6124e881612fd2565b50565b6000818152600a602052604090206002015442118061251c57506000818152600a602052604090206003015460ff16155b6125725760405162461bcd60e51b815260206004820152602160248201527f47616d652073686f756c6420626520616374697665206f7220657870697265646044820152601760f91b60648201526084016107ef565b6000818152600a60208190526040909120015460ff16156125cc5760405162461bcd60e51b815260206004820152601460248201527327232a1030b63932b0b23c9031b630b4b6b2b21760611b60448201526064016107ef565b6000818152600a602052604090206007015461261e5760405162461bcd60e51b81526020600482015260116024820152702737903bb4b73732b939903337bab7321760791b60448201526064016107ef565b6000805b6000838152600a6020526040902060070154811015612696576000838152600a6020526040902060070180543391908390811061266157612661613eba565b6000918252602090912001546001600160a01b0316036126845760019150612696565b8061268e81613ed0565b915050612622565b50806126dc5760405162461bcd60e51b81526020600482015260156024820152742cb7ba9030b932903737ba1030903bb4b73732b91760591b60448201526064016107ef565b6000828152600a602052604090819020600881015460099091015491516323b872dd60e01b815230600482015233602482015260448101929092526001600160a01b0316906323b872dd90606401600060405180830381600087803b15801561274457600080fd5b505af1158015612758573d6000803e3d6000fd5b5050506000838152600a60208190526040808320909101805460ff191660011790555133925084917fec5f0dee1fc3c7beab746dbd5883eee3f1c9bc07fe02dd318c553c5243f52fea91a35050565b6127af61307b565b6000838152601560205260409020600181015490546001600160a01b0390911690600e6127dc8582613f99565b506040805160608101825282815260208082018781526001600160a01b038616838501526000898152601690925292902081518155915190919060018201906128259082613f99565b5060409182015160029190910180546001600160a01b0319166001600160a01b039283161790556000838152600a60209081528382209286168252600690920190915220612874600e826140ce565b50847f7873807bf6ddc50401cd3d29bbe0decee23fd4d68d273f4b5eb83cded4d2f172600e600f6040516128a9929190614225565b60405180910390a25050505050565b600083815260036020526040902054610100900460ff1661290f5760405162461bcd60e51b81526020600482015260116024820152701c995c5d595cdd081b9bdd08199bdd5b99607a1b60448201526064016107ef565b60008381526003602052604090205460ff161561296e5760405162461bcd60e51b815260206004820152601960248201527f5265717565737420616c72656164792066756c66696c6c65640000000000000060448201526064016107ef565b6000838152600360205260409020805460ff191660019081178255612995910183836138ac565b50600083815260036020908152604091829020600201548251868152918201819052917f8b374a54afa880e6437b5a3523d974ab891c4f5df05bab48a27b97a71472cb79910160405180910390a150505050565b6000546001600160a01b03163314610a745760405162461bcd60e51b815260206004820152601660248201527527b7363c9031b0b63630b1363290313c9037bbb732b960511b60448201526064016107ef565b612a446130a6565b6009805460ff60501b191690557f5db9ee0a495bf2e6ff9c91a7834c1ba4fdd244a5e8aa4e537bd38aeae4b073aa335b6040516001600160a01b03909116815260200160405180910390a1565b606061100f6001600160a01b03831660146130d0565b612ab4826000808461324f565b5050565b60606000612ac5836132cd565b60010190506000816001600160401b03811115612ae457612ae46139a0565b6040519080825280601f01601f191660200182016040528015612b0e576020820181803683370190505b5090508181016020015b600019016f181899199a1a9b1b9c1cb0b131b232b360811b600a86061a8153600a8504945084612b1857509392505050565b8051600003612b6c5760405163fe936cb760e01b815260040160405180910390fd5b60a090910152565b60606000612b836101006133a5565b9050612bbc6040518060400160405280600c81526020016b31b7b232a637b1b0ba34b7b760a11b815250826133c690919063ffffffff16565b8251612bda906002811115612bd357612bd3614253565b82906133df565b6040805180820190915260088152676c616e677561676560c01b6020820152612c049082906133c6565b6040830151612c1b908015612bd357612bd3614253565b604080518082019091526006815265736f7572636560d01b6020820152612c439082906133c6565b6060830151612c539082906133c6565b60a08301515115612ce7576040805180820190915260048152636172677360e01b6020820152612c849082906133c6565b612c8d81613418565b60005b8360a0015151811015612cdd57612ccd8460a001518281518110612cb657612cb6613eba565b6020026020010151836133c690919063ffffffff16565b612cd681613ed0565b9050612c90565b50612ce78161343c565b60808301515115612dab57600083602001516002811115612d0a57612d0a614253565b03612d285760405163a80d31f760e01b815260040160405180910390fd5b60408051808201909152600f81526e39b2b1b932ba39a637b1b0ba34b7b760891b6020820152612d599082906133c6565b612d7283602001516002811115612bd357612bd3614253565b6040805180820190915260078152667365637265747360c81b6020820152612d9b9082906133c6565b6080830151612dab90829061345a565b60c08301515115612e445760408051808201909152600981526862797465734172677360b81b6020820152612de19082906133c6565b612dea81613418565b60005b8360c0015151811015612e3a57612e2a8460c001518281518110612e1357612e13613eba565b60200260200101518361345a90919063ffffffff16565b612e3381613ed0565b9050612ded565b50612e448161343c565b515192915050565b6000807f00000000000000000000000000000000000000000000000000000000000000006001600160a01b031663461d27628688600188886040518663ffffffff1660e01b8152600401612ea4959493929190614269565b6020604051808303816000875af1158015612ec3573d6000803e3d6000fd5b505050506040513d601f19601f82011682018060405250810190612ee791906140b5565b60405190915081907f1131472297a800fee664d1d89cfa8f7676ff07189ecc53f80bbb5f4969099db890600090a295945050505050565b612f2661307b565b6009805460ff60501b1916600160501b1790557f62e78cea01bee320cd4e420270b5ea74000d11b0c9f74754ebdbfc544b05a258612a743390565b60607f92fd13387c7fe7befbc38d303d6468778fb9731bc4583f17d92989c6fcfdeaaa82604051602401612f9a91511515815260200190565b60408051601f198184030181529190526020810180516001600160e01b03166001600160e01b03199093169290921790915292915050565b336001600160a01b0382160361302a5760405162461bcd60e51b815260206004820152601760248201527f43616e6e6f74207472616e7366657220746f2073656c6600000000000000000060448201526064016107ef565b600180546001600160a01b0319166001600160a01b0383811691821790925560008054604051929316917fed8889f560326eb138920d842192f0eb3dd22b4f139c87a2c57538e05bae12789190a350565b600954600160501b900460ff1615610a745760405163d93c066560e01b815260040160405180910390fd5b600954600160501b900460ff16610a7457604051638dfc202b60e01b815260040160405180910390fd5b60608260006130e08460026142b2565b6130eb906002613e12565b6001600160401b03811115613102576131026139a0565b6040519080825280601f01601f19166020018201604052801561312c576020820181803683370190505b509050600360fc1b8160008151811061314757613147613eba565b60200101906001600160f81b031916908160001a905350600f60fb1b8160018151811061317657613176613eba565b60200101906001600160f81b031916908160001a905350600061319a8560026142b2565b6131a5906001613e12565b90505b600181111561321d576f181899199a1a9b1b9c1cb0b131b232b360811b83600f16601081106131d9576131d9613eba565b1a60f81b8282815181106131ef576131ef613eba565b60200101906001600160f81b031916908160001a90535060049290921c91613216816142c9565b90506131a8565b5081156132475760405163e22e27eb60e01b815260048101869052602481018590526044016107ef565b949350505050565b8051600003613271576040516322ce3edd60e01b815260040160405180910390fd5b8383600281111561328457613284614253565b9081600281111561329757613297614253565b905250604084018280156132ad576132ad614253565b908180156132bd576132bd614253565b9052506060909301929092525050565b60008072184f03e93ff9f4daa797ed6e38ed64bf6a1f0160401b831061330c5772184f03e93ff9f4daa797ed6e38ed64bf6a1f0160401b830492506040015b6d04ee2d6d415b85acef81000000008310613338576d04ee2d6d415b85acef8100000000830492506020015b662386f26fc10000831061335657662386f26fc10000830492506010015b6305f5e100831061336e576305f5e100830492506008015b612710831061338257612710830492506004015b60648310613394576064830492506002015b600a831061100f5760010192915050565b6133ad6138e7565b80516133b99083613467565b5060006020820152919050565b6133d382600383516134de565b815161096b90826135f7565b81516133ec9060c261361f565b50612ab4828260405160200161340491815260200190565b60405160208183030381529060405261345a565b613423816004613688565b6001816020018181516134369190613e12565b90525050565b613447816007613688565b6001816020018181516134369190613f16565b6133d382600283516134de565b604080518082019091526060815260006020820152613487602083613f29565b156134af57613497602083613f29565b6134a2906020613f16565b6134ac9083613e12565b91505b6020808401839052604051808552600081529081840101818110156134d357600080fd5b604052509192915050565b6017816001600160401b031611613504578251611ac19060e0600585901b16831761361f565b60ff816001600160401b03161161354457825161352c906018611fe0600586901b161761361f565b508251611ac1906001600160401b038316600161369f565b61ffff816001600160401b03161161358557825161356d906019611fe0600586901b161761361f565b508251611ac1906001600160401b038316600261369f565b63ffffffff816001600160401b0316116135c85782516135b090601a611fe0600586901b161761361f565b508251611ac1906001600160401b038316600461369f565b82516135df90601b611fe0600586901b161761361f565b508251611ac1906001600160401b038316600861369f565b60408051808201909152606081526000602082015261361883838451613724565b9392505050565b6040805180820190915260608152600060208201528251516000613644826001613e12565b90508460200151821061366557613665856136608360026142b2565b6137f5565b845160208382010185815350805182111561367e578181525b5093949350505050565b815161096b90601f611fe0600585901b161761361f565b60408051808201909152606081526000602082015283515160006136c38285613e12565b905085602001518111156136e0576136e0866136608360026142b2565b600060016136f0866101006143c4565b6136fa9190613f16565b90508651828101878319825116178152508051831115613718578281525b50959695505050505050565b604080518082019091526060815260006020820152825182111561374757600080fd5b83515160006137568483613e12565b9050856020015181111561377357613773866136608360026142b2565b85518051838201602001916000918085111561378d578482525b505050602086015b602086106137cd57805182526137ac602083613e12565b91506137b9602082613e12565b90506137c6602087613f16565b9550613795565b51815160001960208890036101000a0190811690199190911617905250849150509392505050565b81516138018383613467565b50611ac183826135f7565b828054828255906000526020600020908101928215613861579160200282015b8281111561386157825182546001600160a01b0319166001600160a01b0390911617825560209092019160019091019061382c565b5061386d92915061391c565b5090565b828054828255906000526020600020908101928215613861579160200282015b82811115613861578251825591602001919060010190613891565b828054828255906000526020600020908101928215613861579160200282015b828111156138615782358255916020019190600101906138cc565b604051806040016040528061390f604051806040016040528060608152602001600081525090565b8152602001600081525090565b5b8082111561386d576000815560010161391d565b60006020828403121561394357600080fd5b5035919050565b600081518084526020808501945080840160005b8381101561397a5781518752958201959082019060010161395e565b509495945050505050565b8215158152604060208201526000613247604083018461394a565b634e487b7160e01b600052604160045260246000fd5b600082601f8301126139c757600080fd5b81356001600160401b03808211156139e1576139e16139a0565b604051601f8301601f19908116603f01168101908282118183101715613a0957613a096139a0565b81604052838152866020858801011115613a2257600080fd5b836020870160208301376000602085830101528094505050505092915050565b600080600060608486031215613a5757600080fd5b8335925060208401356001600160401b0380821115613a7557600080fd5b613a81878388016139b6565b93506040860135915080821115613a9757600080fd5b50613aa4868287016139b6565b9150509250925092565b600080600060408486031215613ac357600080fd5b8335925060208401356001600160401b0380821115613ae157600080fd5b818601915086601f830112613af557600080fd5b813581811115613b0457600080fd5b8760208260051b8501011115613b1957600080fd5b6020830194508093505050509250925092565b6000815180845260005b81811015613b5257602081850181015186830182015201613b36565b506000602082860101526020601f19601f83011685010191505092915050565b6020815260006136186020830184613b2c565b602081526000613618602083018461394a565b60008060208385031215613bab57600080fd5b82356001600160401b0380821115613bc257600080fd5b818501915085601f830112613bd657600080fd5b813581811115613be557600080fd5b866020828501011115613bf757600080fd5b60209290920196919550909350505050565b600081518084526020808501945080840160005b8381101561397a5781516001600160a01b031687529582019590820190600101613c1d565b6020815260006136186020830184613c09565b60008060408385031215613c6857600080fd5b50508035926020909101359150565b604081526000613c8a6040830185613c09565b6020838203818501528185518084528284019150828160051b85010183880160005b83811015613cda57601f19878403018552613cc8838351613b2c565b94860194925090850190600101613cac565b50909998505050505050505050565b80356001600160a01b03811681146121ce57600080fd5b600060208284031215613d1257600080fd5b61361882613ce9565b60008060408385031215613d2e57600080fd5b82359150613d3e60208401613ce9565b90509250929050565b600060208284031215613d5957600080fd5b81356001600160401b03811115613d6f57600080fd5b613247848285016139b6565b82151581526040602082015260006132476040830184613b2c565b600080600060608486031215613dab57600080fd5b83359250613dbb60208501613ce9565b9150604084013590509250925092565b838152606060208201526000613de46060830185613b2c565b905060018060a01b0383166040830152949350505050565b634e487b7160e01b600052601160045260246000fd5b8082018082111561100f5761100f613dfc565b600181811c90821680613e3957607f821691505b602082108103613e5957634e487b7160e01b600052602260045260246000fd5b50919050565b803580151581146121ce57600080fd5b60008060008060808587031215613e8557600080fd5b613e8e85613e5f565b9350613e9c60208601613e5f565b9250613eaa60408601613e5f565b9396929550929360600135925050565b634e487b7160e01b600052603260045260246000fd5b600060018201613ee257613ee2613dfc565b5060010190565b60208082526013908201527223b0b6b29034b9903737ba1030b1ba34bb329760691b604082015260600190565b8181038181111561100f5761100f613dfc565b600082613f4657634e487b7160e01b600052601260045260246000fd5b500690565b601f82111561096b57600081815260208120601f850160051c81016020861015613f725750805b601f850160051c820191505b81811015613f9157828155600101613f7e565b505050505050565b81516001600160401b03811115613fb257613fb26139a0565b613fc681613fc08454613e25565b84613f4b565b602080601f831160018114613ffb5760008415613fe35750858301515b600019600386901b1c1916600185901b178555613f91565b600085815260208120601f198616915b8281101561402a5788860151825594840194600190910190840161400b565b50858210156140485787850151600019600388901b60f8161c191681555b5050505050600190811b01905550565b60208152815160208201526020820151604082015261ffff60408301511660608201526000606083015163ffffffff80821660808501528060808601511660a0850152505060a083015160c08084015261324760e0840182613b2c565b6000602082840312156140c757600080fd5b5051919050565b8181036140d9575050565b6140e38254613e25565b6001600160401b038111156140fa576140fa6139a0565b61410881613fc08454613e25565b6000601f82116001811461413c57600083156141245750848201545b600019600385901b1c1916600184901b1784556141a1565b600085815260209020601f19841690600086815260209020845b838110156141765782860154825560019586019590910190602001614156565b50858310156141945781850154600019600388901b60f8161c191681555b50505060018360011b0184555b5050505050565b600081546141b581613e25565b8085526020600183811680156141d257600181146141ec5761421a565b60ff1985168884015283151560051b88018301955061421a565b866000528260002060005b858110156142125781548a82018601529083019084016141f7565b890184019650505b505050505092915050565b60408152600061423860408301856141a8565b828103602084015261424a81856141a8565b95945050505050565b634e487b7160e01b600052602160045260246000fd5b6001600160401b038616815260a06020820152600061428b60a0830187613b2c565b61ffff9590951660408301525063ffffffff92909216606083015260809091015292915050565b808202811582820484141761100f5761100f613dfc565b6000816142d8576142d8613dfc565b506000190190565b600181815b8085111561431b57816000190482111561430157614301613dfc565b8085161561430e57918102915b93841c93908002906142e5565b509250929050565b6000826143325750600161100f565b8161433f5750600061100f565b8160018114614355576002811461435f5761437b565b600191505061100f565b60ff84111561437057614370613dfc565b50506001821b61100f565b5060208310610133831016604e8410600b841016171561439e575081810a61100f565b6143a883836142e0565b80600019048211156143bc576143bc613dfc565b029392505050565b6000613618838361432356fea26469706673582212204303e62372deb06f81ae5d2af306b9d970b59ca5bef8a0b30624863a45d57cb864736f6c63430008140033","linkReferences":{}},"methodIdentifiers":{"acceptOwnership()":"79ba5097","checkUpkeep(bytes)":"6e04ff0d","claimNFT(uint256)":"fe5c873a","convertAddressToString(address)":"5ab59312","createGame(uint256,uint256)":"60104cef","createGameDefault()":"c0722c99","createGameWithInterval(uint256)":"0411ac75","depositNFT(uint256,address,uint256)":"7d6f643b","endGame(uint256)":"d0399bb8","fulfillWinnerMt(uint256,uint256)":"47828219","fulfillWinners(uint256)":"8a8da05b","games(uint256)":"117a5b90","getExpiredGames()":"eb15d79a","getGameCreator(uint256)":"7ad40c86","getGameEndTime(uint256)":"ee7bdc4f","getGameIsActive(uint256)":"185e2187","getGameParticipantScore(uint256,address)":"6f6410fd","getGameParticipants(uint256)":"45fa9549","getGameScores(uint256)":"55985b8f","getGameStartTime(uint256)":"b131d053","getLastRandomWords()":"3c256b24","getLastRequestId()":"19c2b4c3","getLastResponse()":"503f0475","getLastScoreRequest()":"5455d59c","getScoreResponse(bytes32)":"d03ae0aa","getVrfRequestStatus(uint256)":"07119431","getWinners(uint256)":"6b1426a4","handleOracleFulfillment(bytes32,bytes,bytes)":"0ca76175","joinGame(uint256,uint256)":"b60b9fcb","nextGameId()":"b135bbb0","owner()":"8da5cb5b","pause()":"8456cb59","paused()":"5c975abb","performUpkeep(bytes)":"4585e33b","rawFulfillRandomWords(uint256,uint256[])":"1fe543e3","reclaimNFT(uint256)":"a08db82e","requestRandomWords(uint256)":"bc85777c","requestScoreForParticipant(uint256,address)":"6554e38a","s_lastError()":"4b0795a8","s_lastRequestId()":"b1e21749","s_lastResponse()":"3944ea3a","s_vrfCoordinator()":"9eccacf6","s_vrfRequests(uint256)":"2da27092","setCoordinator(address)":"8ea98117","transferOwnership(address)":"f2fde38b","unpause()":"3f4ba83a","vrfLastRequestId()":"7d058d4f","vrfRequestIds(uint256)":"425c9fa2"},"id":1}