{"abi":[{"type":"constructor","inputs":[{"name":"functionsRouter","type":"address","internalType":"address"},{"name":"donId","type":"bytes32","internalType":"bytes32"},{"name":"secretVersion","type":"uint64","internalType":"uint64"},{"name":"secretSlot","type":"uint8","internalType":"uint8"},{"name":"source","type":"string","internalType":"string"},{"name":"subscriptionId","type":"uint64","internalType":"uint64"},{"name":"_vrfSubscription","type":"uint256","internalType":"uint256"},{"name":"_vrfCoordinator","type":"address","internalType":"address"}],"stateMutability":"nonpayable"},{"type":"function","name":"acceptOwnership","inputs":[],"outputs":[],"stateMutability":"nonpayable"},{"type":"function","name":"checkUpkeep","inputs":[{"name":"","type":"bytes","internalType":"bytes"}],"outputs":[{"name":"upkeepNeeded","type":"bool","internalType":"bool"},{"name":"performData","type":"bytes","internalType":"bytes"}],"stateMutability":"view"},{"type":"function","name":"claimNFT","inputs":[{"name":"_gameId","type":"uint256","internalType":"uint256"}],"outputs":[],"stateMutability":"nonpayable"},{"type":"function","name":"convertAddressToString","inputs":[{"name":"_address","type":"address","internalType":"address"}],"outputs":[{"name":"","type":"string","internalType":"string"}],"stateMutability":"pure"},{"type":"function","name":"createGame","inputs":[{"name":"_startTime","type":"uint256","internalType":"uint256"},{"name":"_endTime","type":"uint256","internalType":"uint256"}],"outputs":[],"stateMutability":"nonpayable"},{"type":"function","name":"createGameDefault","inputs":[],"outputs":[],"stateMutability":"nonpayable"},{"type":"function","name":"createGameWithInterval","inputs":[{"name":"_interval","type":"uint256","internalType":"uint256"}],"outputs":[],"stateMutability":"nonpayable"},{"type":"function","name":"depositNFT","inputs":[{"name":"_gameId","type":"uint256","internalType":"uint256"},{"name":"_nftContract","type":"address","internalType":"address"},{"name":"_tokenId","type":"uint256","internalType":"uint256"}],"outputs":[],"stateMutability":"nonpayable"},{"type":"function","name":"endGame","inputs":[{"name":"_gameId","type":"uint256","internalType":"uint256"}],"outputs":[],"stateMutability":"nonpayable"},{"type":"function","name":"fulfillWinnerMt","inputs":[{"name":"_gameId","type":"uint256","internalType":"uint256"},{"name":"winnerIndex","type":"uint256","internalType":"uint256"}],"outputs":[],"stateMutability":"nonpayable"},{"type":"function","name":"fulfillWinners","inputs":[{"name":"_requestId","type":"uint256","internalType":"uint256"}],"outputs":[],"stateMutability":"nonpayable"},{"type":"function","name":"games","inputs":[{"name":"","type":"uint256","internalType":"uint256"}],"outputs":[{"name":"creator","type":"address","internalType":"address"},{"name":"startTime","type":"uint256","internalType":"uint256"},{"name":"endTime","type":"uint256","internalType":"uint256"},{"name":"isActive","type":"bool","internalType":"bool"},{"name":"nftContract","type":"address","internalType":"address"},{"name":"nftTokenId","type":"uint256","internalType":"uint256"},{"name":"nftClaimed","type":"bool","internalType":"bool"}],"stateMutability":"view"},{"type":"function","name":"getGameCreator","inputs":[{"name":"gameId","type":"uint256","internalType":"uint256"}],"outputs":[{"name":"","type":"address","internalType":"address"}],"stateMutability":"view"},{"type":"function","name":"getGameEndTime","inputs":[{"name":"gameId","type":"uint256","internalType":"uint256"}],"outputs":[{"name":"","type":"uint256","internalType":"uint256"}],"stateMutability":"view"},{"type":"function","name":"getGameIsActive","inputs":[{"name":"gameId","type":"uint256","internalType":"uint256"}],"outputs":[{"name":"","type":"bool","internalType":"bool"}],"stateMutability":"view"},{"type":"function","name":"getGameParticipantScore","inputs":[{"name":"gameId","type":"uint256","internalType":"uint256"},{"name":"participant","type":"address","internalType":"address"}],"outputs":[{"name":"","type":"string","internalType":"string"}],"stateMutability":"view"},{"type":"function","name":"getGameParticipants","inputs":[{"name":"gameId","type":"uint256","internalType":"uint256"}],"outputs":[{"name":"","type":"address[]","internalType":"address[]"}],"stateMutability":"view"},{"type":"function","name":"getGameScores","inputs":[{"name":"gameId","type":"uint256","internalType":"uint256"}],"outputs":[{"name":"","type":"address[]","internalType":"address[]"},{"name":"","type":"string[]","internalType":"string[]"}],"stateMutability":"view"},{"type":"function","name":"getGameStartTime","inputs":[{"name":"gameId","type":"uint256","internalType":"uint256"}],"outputs":[{"name":"","type":"uint256","internalType":"uint256"}],"stateMutability":"view"},{"type":"function","name":"getLastRandomWords","inputs":[],"outputs":[{"name":"","type":"uint256[]","internalType":"uint256[]"}],"stateMutability":"view"},{"type":"function","name":"getLastRequestId","inputs":[],"outputs":[{"name":"","type":"bytes32","internalType":"bytes32"}],"stateMutability":"view"},{"type":"function","name":"getLastResponse","inputs":[],"outputs":[{"name":"","type":"string","internalType":"string"}],"stateMutability":"view"},{"type":"function","name":"getLastScoreRequest","inputs":[],"outputs":[{"name":"","type":"uint256","internalType":"uint256"},{"name":"","type":"address","internalType":"address"}],"stateMutability":"view"},{"type":"function","name":"getScoreResponse","inputs":[{"name":"requestId","type":"bytes32","internalType":"bytes32"}],"outputs":[{"name":"","type":"uint256","internalType":"uint256"},{"name":"","type":"string","internalType":"string"},{"name":"","type":"address","internalType":"address"}],"stateMutability":"view"},{"type":"function","name":"getVrfRequestStatus","inputs":[{"name":"_requestId","type":"uint256","internalType":"uint256"}],"outputs":[{"name":"fulfilled","type":"bool","internalType":"bool"},{"name":"randomWords","type":"uint256[]","internalType":"uint256[]"}],"stateMutability":"view"},{"type":"function","name":"getWinners","inputs":[{"name":"gameId","type":"uint256","internalType":"uint256"}],"outputs":[{"name":"","type":"address[]","internalType":"address[]"}],"stateMutability":"view"},{"type":"function","name":"handleOracleFulfillment","inputs":[{"name":"requestId","type":"bytes32","internalType":"bytes32"},{"name":"response","type":"bytes","internalType":"bytes"},{"name":"err","type":"bytes","internalType":"bytes"}],"outputs":[],"stateMutability":"nonpayable"},{"type":"function","name":"joinGame","inputs":[{"name":"_gameId","type":"uint256","internalType":"uint256"}],"outputs":[],"stateMutability":"nonpayable"},{"type":"function","name":"nextGameId","inputs":[],"outputs":[{"name":"","type":"uint256","internalType":"uint256"}],"stateMutability":"view"},{"type":"function","name":"owner","inputs":[],"outputs":[{"name":"","type":"address","internalType":"address"}],"stateMutability":"view"},{"type":"function","name":"pause","inputs":[],"outputs":[],"stateMutability":"nonpayable"},{"type":"function","name":"paused","inputs":[],"outputs":[{"name":"","type":"bool","internalType":"bool"}],"stateMutability":"view"},{"type":"function","name":"performUpkeep","inputs":[{"name":"performData","type":"bytes","internalType":"bytes"}],"outputs":[],"stateMutability":"nonpayable"},{"type":"function","name":"rawFulfillRandomWords","inputs":[{"name":"requestId","type":"uint256","internalType":"uint256"},{"name":"randomWords","type":"uint256[]","internalType":"uint256[]"}],"outputs":[],"stateMutability":"nonpayable"},{"type":"function","name":"reclaimNFT","inputs":[{"name":"_gameId","type":"uint256","internalType":"uint256"}],"outputs":[],"stateMutability":"nonpayable"},{"type":"function","name":"requestRandomWords","inputs":[{"name":"_gameId","type":"uint256","internalType":"uint256"}],"outputs":[{"name":"requestId","type":"uint256","internalType":"uint256"}],"stateMutability":"nonpayable"},{"type":"function","name":"requestScoreForParticipant","inputs":[{"name":"_gameId","type":"uint256","internalType":"uint256"},{"name":"participant","type":"address","internalType":"address"}],"outputs":[{"name":"requestId","type":"bytes32","internalType":"bytes32"}],"stateMutability":"nonpayable"},{"type":"function","name":"s_lastError","inputs":[],"outputs":[{"name":"","type":"bytes","internalType":"bytes"}],"stateMutability":"view"},{"type":"function","name":"s_lastRequestId","inputs":[],"outputs":[{"name":"","type":"bytes32","internalType":"bytes32"}],"stateMutability":"view"},{"type":"function","name":"s_lastResponse","inputs":[],"outputs":[{"name":"","type":"bytes","internalType":"bytes"}],"stateMutability":"view"},{"type":"function","name":"s_vrfCoordinator","inputs":[],"outputs":[{"name":"","type":"address","internalType":"contract IVRFCoordinatorV2Plus"}],"stateMutability":"view"},{"type":"function","name":"s_vrfRequests","inputs":[{"name":"","type":"uint256","internalType":"uint256"}],"outputs":[{"name":"fulfilled","type":"bool","internalType":"bool"},{"name":"exists","type":"bool","internalType":"bool"},{"name":"gameId","type":"uint256","internalType":"uint256"}],"stateMutability":"view"},{"type":"function","name":"setCoordinator","inputs":[{"name":"_vrfCoordinator","type":"address","internalType":"address"}],"outputs":[],"stateMutability":"nonpayable"},{"type":"function","name":"transferOwnership","inputs":[{"name":"to","type":"address","internalType":"address"}],"outputs":[],"stateMutability":"nonpayable"},{"type":"function","name":"unpause","inputs":[],"outputs":[],"stateMutability":"nonpayable"},{"type":"function","name":"vrfLastRequestId","inputs":[],"outputs":[{"name":"","type":"uint256","internalType":"uint256"}],"stateMutability":"view"},{"type":"function","name":"vrfRequestIds","inputs":[{"name":"","type":"uint256","internalType":"uint256"}],"outputs":[{"name":"","type":"uint256","internalType":"uint256"}],"stateMutability":"view"},{"type":"event","name":"CheckedUpkeep","inputs":[{"name":"activeGame","type":"bool","indexed":false,"internalType":"bool"},{"name":"hasPassed","type":"bool","indexed":false,"internalType":"bool"},{"name":"hasPlayers","type":"bool","indexed":false,"internalType":"bool"},{"name":"blockTimestamp","type":"uint256","indexed":false,"internalType":"uint256"}],"anonymous":false},{"type":"event","name":"CoordinatorSet","inputs":[{"name":"vrfCoordinator","type":"address","indexed":false,"internalType":"address"}],"anonymous":false},{"type":"event","name":"GameCreated","inputs":[{"name":"gameId","type":"uint256","indexed":true,"internalType":"uint256"},{"name":"startTime","type":"uint256","indexed":false,"internalType":"uint256"},{"name":"endTime","type":"uint256","indexed":false,"internalType":"uint256"}],"anonymous":false},{"type":"event","name":"GameEnded","inputs":[{"name":"gameId","type":"uint256","indexed":true,"internalType":"uint256"}],"anonymous":false},{"type":"event","name":"NFTClaimed","inputs":[{"name":"gameId","type":"uint256","indexed":true,"internalType":"uint256"},{"name":"winner","type":"address","indexed":true,"internalType":"address"}],"anonymous":false},{"type":"event","name":"NFTDeposited","inputs":[{"name":"gameId","type":"uint256","indexed":true,"internalType":"uint256"},{"name":"nftContract","type":"address","indexed":true,"internalType":"address"},{"name":"tokenId","type":"uint256","indexed":false,"internalType":"uint256"},{"name":"depositor","type":"address","indexed":true,"internalType":"address"}],"anonymous":false},{"type":"event","name":"NFTReclaimed","inputs":[{"name":"gameId","type":"uint256","indexed":true,"internalType":"uint256"},{"name":"winner","type":"address","indexed":true,"internalType":"address"}],"anonymous":false},{"type":"event","name":"OwnershipTransferRequested","inputs":[{"name":"from","type":"address","indexed":true,"internalType":"address"},{"name":"to","type":"address","indexed":true,"internalType":"address"}],"anonymous":false},{"type":"event","name":"OwnershipTransferred","inputs":[{"name":"from","type":"address","indexed":true,"internalType":"address"},{"name":"to","type":"address","indexed":true,"internalType":"address"}],"anonymous":false},{"type":"event","name":"ParticipantJoinedGame","inputs":[{"name":"gameId","type":"uint256","indexed":true,"internalType":"uint256"},{"name":"participant","type":"address","indexed":true,"internalType":"address"}],"anonymous":false},{"type":"event","name":"Paused","inputs":[{"name":"account","type":"address","indexed":false,"internalType":"address"}],"anonymous":false},{"type":"event","name":"RequestFulfilled","inputs":[{"name":"id","type":"bytes32","indexed":true,"internalType":"bytes32"}],"anonymous":false},{"type":"event","name":"RequestSent","inputs":[{"name":"id","type":"bytes32","indexed":true,"internalType":"bytes32"}],"anonymous":false},{"type":"event","name":"Response","inputs":[{"name":"requestId","type":"bytes32","indexed":true,"internalType":"bytes32"},{"name":"response","type":"bytes","indexed":false,"internalType":"bytes"},{"name":"err","type":"bytes","indexed":false,"internalType":"bytes"}],"anonymous":false},{"type":"event","name":"Unpaused","inputs":[{"name":"account","type":"address","indexed":false,"internalType":"address"}],"anonymous":false},{"type":"event","name":"VrfRequestFulfilled","inputs":[{"name":"requestId","type":"uint256","indexed":false,"internalType":"uint256"},{"name":"gameId","type":"uint256","indexed":false,"internalType":"uint256"}],"anonymous":false},{"type":"event","name":"VrfRequestSent","inputs":[{"name":"requestId","type":"uint256","indexed":false,"internalType":"uint256"},{"name":"numWords","type":"uint32","indexed":false,"internalType":"uint32"}],"anonymous":false},{"type":"event","name":"WinnerFulfilled","inputs":[{"name":"gameId","type":"uint256","indexed":true,"internalType":"uint256"},{"name":"winnerIndex","type":"uint256","indexed":true,"internalType":"uint256"}],"anonymous":false},{"type":"error","name":"EmptyArgs","inputs":[]},{"type":"error","name":"EmptySource","inputs":[]},{"type":"error","name":"EnforcedPause","inputs":[]},{"type":"error","name":"ExpectedPause","inputs":[]},{"type":"error","name":"GameDoesNotExist","inputs":[{"name":"gameId","type":"uint256","internalType":"uint256"}]},{"type":"error","name":"NoInlineSecrets","inputs":[]},{"type":"error","name":"OnlyCoordinatorCanFulfill","inputs":[{"name":"have","type":"address","internalType":"address"},{"name":"want","type":"address","internalType":"address"}]},{"type":"error","name":"OnlyOwnerOrCoordinator","inputs":[{"name":"have","type":"address","internalType":"address"},{"name":"owner","type":"address","internalType":"address"},{"name":"coordinator","type":"address","internalType":"address"}]},{"type":"error","name":"OnlyRouterCanFulfill","inputs":[]},{"type":"error","name":"ParticipantAlreadyInGame","inputs":[{"name":"gameId","type":"uint256","internalType":"uint256"},{"name":"participant","type":"address","internalType":"address"}]},{"type":"error","name":"Raffle__UpkeepNotNeeded","inputs":[]},{"type":"error","name":"StringsInsufficientHexLength","inputs":[{"name":"value","type":"uint256","internalType":"uint256"},{"name":"length","type":"uint256","internalType":"uint256"}]},{"type":"error","name":"UnexpectedRequestID","inputs":[{"name":"requestId","type":"bytes32","internalType":"bytes32"}]},{"type":"error","name":"ZeroAddress","inputs":[]}],"bytecode":{"object":"0x60c06040527f1770bdc7eec7771f7ba4ffd640f34260d7f095b79c92d34a5b2551d6f6cfd2be600855600980546001600160501b03191666020003002625a01790556000600b553480156200005357600080fd5b5060405162004773380380620047738339810160408190526200007691620002de565b6001600160a01b0388166080528181803380600081620000dd5760405162461bcd60e51b815260206004820152601860248201527f43616e6e6f7420736574206f776e657220746f207a65726f000000000000000060448201526064015b60405180910390fd5b600080546001600160a01b0319166001600160a01b038481169190911790915581161562000110576200011081620001e8565b5050506001600160a01b0381166200013b5760405163d92e233d60e01b815260040160405180910390fd5b600280546001600160a01b03199081166001600160a01b0393841617909155600480548216938316939093179092556005929092556009805460ff60501b1916905560108054909116918a169190911790556012879055601480546001600160401b0388166001600160481b0319909116176801000000000000000060ff8816021790556011620001cd8582620004ba565b5050506001600160401b031660a05250620005869350505050565b336001600160a01b03821603620002425760405162461bcd60e51b815260206004820152601760248201527f43616e6e6f74207472616e7366657220746f2073656c660000000000000000006044820152606401620000d4565b600180546001600160a01b0319166001600160a01b0383811691821790925560008054604051929316917fed8889f560326eb138920d842192f0eb3dd22b4f139c87a2c57538e05bae12789190a350565b80516001600160a01b0381168114620002ab57600080fd5b919050565b80516001600160401b0381168114620002ab57600080fd5b634e487b7160e01b600052604160045260246000fd5b600080600080600080600080610100898b031215620002fc57600080fd5b620003078962000293565b97506020808a015197506200031f60408b01620002b0565b965060608a015160ff811681146200033657600080fd5b60808b01519096506001600160401b03808211156200035457600080fd5b818c0191508c601f8301126200036957600080fd5b8151818111156200037e576200037e620002c8565b604051601f8201601f19908116603f01168101908382118183101715620003a957620003a9620002c8565b816040528281528f86848701011115620003c257600080fd5b600093505b82841015620003e65784840186015181850187015292850192620003c7565b60008684830101528099505050505050506200040560a08a01620002b0565b925060c089015191506200041c60e08a0162000293565b90509295985092959890939650565b600181811c908216806200044057607f821691505b6020821081036200046157634e487b7160e01b600052602260045260246000fd5b50919050565b601f821115620004b557600081815260208120601f850160051c81016020861015620004905750805b601f850160051c820191505b81811015620004b1578281556001016200049c565b5050505b505050565b81516001600160401b03811115620004d657620004d6620002c8565b620004ee81620004e784546200042b565b8462000467565b602080601f8311600181146200052657600084156200050d5750858301515b600019600386901b1c1916600185901b178555620004b1565b600085815260208120601f198616915b82811015620005575788860151825594840194600190910190840162000536565b5085821015620005765787850151600019600388901b60f8161c191681555b5050505050600190811b01905550565b60805160a0516141c0620005b360003960006114450152600081816108940152612bdc01526141c06000f3fe608060405234801561001057600080fd5b50600436106102955760003560e01c80636b1426a411610167578063a08db82e116100ce578063d0399bb811610087578063d0399bb8146106e2578063d03ae0aa146106f5578063ee7bdc4f14610717578063efaa55a01461073a578063f2fde38b1461074d578063fe5c873a1461076057600080fd5b8063a08db82e1461067f578063b131d05314610692578063b135bbb0146106b5578063b1e21749146106be578063bc85777c146106c7578063c0722c99146106da57600080fd5b80637d6f643b116101205780637d6f643b1461061a5780638456cb591461062d5780638a8da05b146106355780638da5cb5b146106485780638ea98117146106595780639eccacf61461066c57600080fd5b80636b1426a4146105815780636e04ff0d146105945780636f6410fd146105b557806379ba5097146105c85780637ad40c86146105d05780637d058d4f1461061157600080fd5b8063425c9fa21161020b5780635455d59c116101c45780635455d59c146104d657806355985b8f146105155780635ab59312146105365780635c975abb1461054957806360104cef1461055b5780636554e38a1461056e57600080fd5b8063425c9fa21461046d5780634585e33b1461048057806345fa95491461049357806347828219146104b35780634b0795a8146104c6578063503f0475146104ce57600080fd5b806319c2b4c31161025d57806319c2b4c3146103c55780631fe543e3146103d75780632da27092146103ea5780633944ea3a1461043b5780633c256b24146104505780633f4ba83a1461046557600080fd5b80630411ac751461029a57806307119431146102af5780630ca76175146102d9578063117a5b90146102ec578063185e21871461038f575b600080fd5b6102ad6102a83660046136bc565b610773565b005b6102c26102bd3660046136bc565b610786565b6040516102d0929190613710565b60405180910390f35b6102ad6102e73660046137cd565b610889565b6103486102fa3660046136bc565b600a60208190526000918252604090912080546001820154600283015460038401546008850154600986015495909601546001600160a01b03948516969395929460ff928316941692911687565b604080516001600160a01b03988916815260208101979097528601949094529115156060850152909316608083015260a082019290925290151560c082015260e0016102d0565b6103b561039d3660046136bc565b6000908152600a602052604090206003015460ff1690565b60405190151581526020016102d0565b600d545b6040519081526020016102d0565b6102ad6103e5366004613839565b61090d565b61041e6103f83660046136bc565b6003602052600090815260409020805460029091015460ff808316926101009004169083565b6040805193151584529115156020840152908201526060016102d0565b61044361095d565b6040516102d091906138fd565b6104586109eb565b6040516102d09190613910565b6102ad610a51565b6103c961047b3660046136bc565b610a63565b6102ad61048e366004613923565b610a84565b6104a66104a13660046136bc565b610afc565b6040516102d091906139cd565b6102ad6104c13660046139e0565b610b6b565b610443610d4a565b610443610d57565b600d54600090815260156020526040902080546001909101546001600160a01b0316604080519283526001600160a01b039091166020830152016102d0565b6105286105233660046136bc565b610de0565b6040516102d0929190613a02565b610443610544366004613a8b565b610fc9565b600954600160501b900460ff166103b5565b6102ad6105693660046139e0565b610fda565b6103c961057c366004613aa6565b61110c565b6104a661058f3660046136bc565b6114cc565b6105a76105a2366004613ad2565b611539565b6040516102d0929190613b06565b6104436105c3366004613aa6565b6115f7565b6102ad6116b1565b6105f96105de3660046136bc565b6000908152600a60205260409020546001600160a01b031690565b6040516001600160a01b0390911681526020016102d0565b6103c960075481565b6102ad610628366004613b21565b61175b565b6102ad6118e9565b6102ad6106433660046136bc565b6118f9565b6000546001600160a01b03166105f9565b6102ad610667366004613a8b565b611a38565b6002546105f9906001600160a01b031681565b6102ad61068d3660046136bc565b611b2a565b6103c96106a03660046136bc565b6000908152600a602052604090206001015490565b6103c9600b5481565b6103c9600d5481565b6103c96106d53660046136bc565b611cf9565b6102ad611ef5565b6102ad6106f03660046136bc565b611f05565b6107086107033660046136bc565b612034565b6040516102d093929190613b56565b6103c96107253660046136bc565b6000908152600a602052604090206002015490565b6102ad6107483660046136bc565b6120fb565b6102ad61075b366004613a8b565b6122b7565b6102ad61076e3660046136bc565b6122cb565b610781426105698382613b9d565b600c55565b600081815260036020526040812054606090610100900460ff166107e55760405162461bcd60e51b81526020600482015260116024820152701c995c5d595cdd081b9bdd08199bdd5b99607a1b60448201526064015b60405180910390fd5b60008381526003602090815260408083208151608081018352815460ff808216151583526101009091041615158185015260018201805484518187028101870186528181529295939486019383018282801561086057602002820191906000526020600020905b81548152602001906001019080831161084c575b505050505081526020016002820154815250509050806000015181604001519250925050915091565b336001600160a01b037f000000000000000000000000000000000000000000000000000000000000000016146108d25760405163c6829f8360e01b815260040160405180910390fd5b6108dd838383612532565b60405183907f85e1543bf2f84fe80c6badbce3648c8539ad1df4d2b3d822938ca0538be727e690600090a2505050565b6002546001600160a01b0316331461094d5760025460405163073e64fd60e21b81523360048201526001600160a01b0390911660248201526044016107dc565b610958838383612643565b505050565b600e805461096a90613bb0565b80601f016020809104026020016040519081016040528092919081815260200182805461099690613bb0565b80156109e35780601f106109b8576101008083540402835291602001916109e3565b820191906000526020600020905b8154815290600101906020018083116109c657829003601f168201915b505050505081565b600754600090815260036020908152604091829020600101805483518184028101840190945280845260609392830182828015610a4757602002820191906000526020600020905b815481526020019060010190808311610a33575b5050505050905090565b610a59612774565b610a616127c7565b565b60068181548110610a7357600080fd5b600091825260209091200154905081565b6000808080610a9585870187613bfa565b93509350935093507ffbd4dd195fd0b96a07b166a978fd395f5a414e87941d8a1c653eae647242a6b984848484604051610aec94939291909315158452911515602084015215156040830152606082015260800190565b60405180910390a1505050505050565b6000818152600a6020908152604091829020600401805483518184028101840190945280845260609392830182828015610b5f57602002820191906000526020600020905b81546001600160a01b03168152600190910190602001808311610b41575b50505050509050919050565b610b73612774565b6000828152600a602052604090206003015460ff1615610ba55760405162461bcd60e51b81526004016107dc90613c45565b6000828152600a6020526040902060040154610bfc5760405162461bcd60e51b81526020600482015260166024820152752737903830b93a34b1b4b830b73a39903337bab7321760511b60448201526064016107dc565b6000828152600a602052604090206007015415610c545760405162461bcd60e51b81526020600482015260166024820152752bb4b73732b9399030b63932b0b23c903337bab7321760511b60448201526064016107dc565b6000828152600a60205260409020600401548110610cb45760405162461bcd60e51b815260206004820152601a60248201527f57696e6e657220696e646578206f7574206f6620626f756e647300000000000060448201526064016107dc565b6000828152600a6020526040902060048101805460079092019183908110610cde57610cde613c74565b6000918252602080832090910154835460018101855593835290822090920180546001600160a01b0319166001600160a01b0390931692909217909155604051829184917f77b599fb56acd5a19d4eac13cb5da247718c5f24068b408fc99fbfcb85ebd8909190a35050565b600f805461096a90613bb0565b6060600e8054610d6690613bb0565b80601f0160208091040260200160405190810160405280929190818152602001828054610d9290613bb0565b8015610a475780601f10610db457610100808354040283529160200191610a47565b820191906000526020600020905b815481529060010190602001808311610dc257509395945050505050565b6060806000600a6000858152602001908152602001600020600401805480602002602001604051908101604052809291908181526020018280548015610e4f57602002820191906000526020600020905b81546001600160a01b03168152600190910190602001808311610e31575b50505050509050600081516001600160401b03811115610e7157610e7161372b565b604051908082528060200260200182016040528015610ea457816020015b6060815260200190600190039081610e8f5790505b50905060005b8251811015610fbe57600a60008781526020019081526020016000206006016000848381518110610edd57610edd613c74565b60200260200101516001600160a01b03166001600160a01b031681526020019081526020016000208054610f1090613bb0565b80601f0160208091040260200160405190810160405280929190818152602001828054610f3c90613bb0565b8015610f895780601f10610f5e57610100808354040283529160200191610f89565b820191906000526020600020905b815481529060010190602001808311610f6c57829003601f168201915b5050505050828281518110610fa057610fa0613c74565b60200260200101819052508080610fb690613c8a565b915050610eaa565b509094909350915050565b6060610fd48261281c565b92915050565b8181116110345760405162461bcd60e51b815260206004820152602260248201527f456e642074696d65206d7573742062652061667465722073746172742074696d604482015261329760f11b60648201526084016107dc565b600b546000908152600a6020908152604080832080546001600160a01b0319163317815560018082018790556002820186905560038201805460ff191690911790558151938452918301908190529151909161109591600484019190613597565b5060408051600081526020810191829052516110b5916007840191613597565b50600b5460408051858152602081018590527fbd3f84a55fdc44f970adc6ccbaa93e78d7da5f3fc37c4b7da578d47c9ad2e46a910160405180910390a2600b805490600061110283613c8a565b9190505550505050565b6000828152600a602090815260408083206001600160a01b03851684526005019091528120548390839060ff1661119e5760405162461bcd60e51b815260206004820152603060248201527f476976656e2061646472657373206973206e6f7420612070617274696369706160448201526f373a1034b7103a3434b99033b0b6b29760811b60648201526084016107dc565b6000858152600a602052604090206003015460ff166111cf5760405162461bcd60e51b81526004016107dc90613ca3565b6000858152600a6020526040902060010154421080159061120157506000858152600a60205260409020600201544211155b6112575760405162461bcd60e51b815260206004820152602160248201527f47616d65206973206e6f742077697468696e2061637469766520706572696f646044820152601760f91b60648201526084016107dc565b6000858152600a60205260409020546001600160a01b031633146112d25760405162461bcd60e51b815260206004820152602c60248201527f4f6e6c79207468652067616d652063726561746f722063616e2072657175657360448201526b3a103a34329039b1b7b9329760a11b60648201526084016107dc565b6113136040805160e0810190915280600081526020016000815260200160008152602001606081526020016060815260200160608152602001606081525090565b6113b06011805461132390613bb0565b80601f016020809104026020016040519081016040528092919081815260200182805461134f90613bb0565b801561139c5780601f106113715761010080835404028352916020019161139c565b820191906000526020600020905b81548152906001019060200180831161137f57829003601f168201915b50505050508261283290919063ffffffff16565b60408051600280825260608201909252600091816020015b60608152602001906001900390816113c85790505090506113e887612843565b816000815181106113fb576113fb613c74565b602002602001018190525061140f86610fc9565b8160018151811061142257611422613c74565b602090810291909101015261143782826128d5565b611470611443836128ff565b7f0000000000000000000000000000000000000000000000000000000000000000620493e0601254612bd7565b600d818155604080518082018252998a526001600160a01b039889166020808c019182526000948552601590529220985189559051600190980180546001600160a01b0319169890971697909717909555505092549392505050565b6000818152600a6020908152604091829020600701805483518184028101840190945280845260609392830182828015610b5f576020028201919060005260206000209081546001600160a01b03168152600190910190602001808311610b415750505050509050919050565b60006060815b600b548110156115f1576000818152600a602052604081206003810154600c5460019092015460ff9091169291906115779042613cd0565b6000858152600a60205260409020600401549110915015158280156115995750805b156115db5760408051841515602082015283151591810191909152811515606082015242608082015260a0016040516020818303038152906040529450600195505b50505080806115e990613c8a565b91505061153f565b50915091565b6000828152600a602090815260408083206001600160a01b0385168452600601909152902080546060919061162b90613bb0565b80601f016020809104026020016040519081016040528092919081815260200182805461165790613bb0565b80156116a45780601f10611679576101008083540402835291602001916116a4565b820191906000526020600020905b81548152906001019060200180831161168757829003601f168201915b5050505050905092915050565b6001546001600160a01b031633146117045760405162461bcd60e51b815260206004820152601660248201527526bab9ba10313290383937b837b9b2b21037bbb732b960511b60448201526064016107dc565b60008054336001600160a01b0319808316821784556001805490911690556040516001600160a01b0390921692909183917f8be0079c531659141344cd1fd0a4f28419497f9722a3daafe3b4186f6b6457e091a350565b6000838152600a60205260409020546001600160a01b031633146117d45760405162461bcd60e51b815260206004820152602a60248201527f4f6e6c79207468652067616d652063726561746f722063616e206465706f73696044820152693a103a34329027232a1760b11b60648201526084016107dc565b6000838152600a602052604090206003015460ff166118055760405162461bcd60e51b81526004016107dc90613ca3565b6040516323b872dd60e01b8152336004820152306024820152604481018290526001600160a01b038316906323b872dd90606401600060405180830381600087803b15801561185357600080fd5b505af1158015611867573d6000803e3d6000fd5b5050506000848152600a60208181526040928390206008810180546001600160a01b0319166001600160a01b038916908117909155600982018790559201805460ff191690559151848152339350909186917f8e0fba0f28f504542af1cd9bf5b599299bd212bd44a7dc5c5658010e13ffd31e910160405180910390a4505050565b6118f1612774565b610a61612ca9565b611901612774565b60008181526003602090815260408083206001018054825181850281018501909352808352919290919083018282801561195a57602002820191906000526020600020905b815481526020019060010190808311611946575b5050506000858152600360205260408120600201549394509150505b8251811015611a32576000828152600a602052604081206004015484518590849081106119a5576119a5613c74565b60200260200101516119b79190613ce3565b6000848152600a60205260409020600481018054929350600790910191839081106119e4576119e4613c74565b60009182526020808320909101548354600181018555938352912090910180546001600160a01b0319166001600160a01b039092169190911790555080611a2a81613c8a565b915050611976565b50505050565b6000546001600160a01b03163314801590611a5e57506002546001600160a01b03163314155b15611aaf5733611a766000546001600160a01b031690565b60025460405163061db9c160e01b81526001600160a01b03938416600482015291831660248301529190911660448201526064016107dc565b6001600160a01b038116611ad65760405163d92e233d60e01b815260040160405180910390fd5b600280546001600160a01b0319166001600160a01b0383169081179091556040519081527fd1a6a14209a385a964d036e404cb5cfb71f4000cdb03c9366292430787261be69060200160405180910390a150565b6000818152600a60205260409020546001600160a01b03163314611ba35760405162461bcd60e51b815260206004820152602a60248201527f4f6e6c79207468652067616d652063726561746f722063616e207265636c616960448201526936903a34329027232a1760b11b60648201526084016107dc565b6000818152600a602052604090206003015460ff1615611bd55760405162461bcd60e51b81526004016107dc90613c45565b6000818152600a60208190526040909120015460ff1615611c2f5760405162461bcd60e51b815260206004820152601460248201527327232a1030b63932b0b23c9031b630b4b6b2b21760611b60448201526064016107dc565b6000818152600a602052604090819020600881015460099091015491516323b872dd60e01b815230600482015233602482015260448101929092526001600160a01b0316906323b872dd90606401600060405180830381600087803b158015611c9757600080fd5b505af1158015611cab573d6000803e3d6000fd5b5050506000828152600a60208190526040808320909101805460ff191660011790555133925083917f56c922176dd9b2a1fdcf8a3aa048b543fc88a2750fcd5341c0b635bb9d11f81791a350565b6000611d03612774565b6004546040805160c081018252600854815260055460208083019190915260095461ffff6401000000008204168385015263ffffffff808216606085015266010000000000009091041660808301528251908101909252600082526001600160a01b0390921691639b1c385e9160a0820190611d7e90612cec565b8152506040518263ffffffff1660e01b8152600401611d9d9190613d05565b6020604051808303816000875af1158015611dbc573d6000803e3d6000fd5b505050506040513d601f19601f82011682018060405250810190611de09190613d62565b6040805160808101825260008082526001602080840182815285518481528083018752858701908152606086018a9052878552600383529590932084518154945161ffff1990951690151561ff00191617610100941515949094029390931783559351805195965092949193611e5c93918501929101906135fc565b5060609190910151600290910155600680546001810182556000919091527ff652222313e28459528d920b65115c16c04f3efc82aaedc97be59f3f377c0d3f01819055600781905560095460408051838152660100000000000090920463ffffffff1660208301527fb478b40bf0d6ab2120b57e456db91df45395850da43f8b7a6f16c4b0568e17b8910160405180910390a15b919050565b610a614261056981610e10613b9d565b6000818152600a60205260409020546001600160a01b0316331480611f3457506000546001600160a01b031633145b611f905760405162461bcd60e51b815260206004820152602760248201527f4f6e6c79207468652067616d652063726561746f722063616e20656e64207468604482015266329033b0b6b29760c91b60648201526084016107dc565b6000818152600a602052604090206003015460ff16611ff15760405162461bcd60e51b815260206004820152601960248201527f47616d6520697320616c726561647920696e6163746976652e0000000000000060448201526064016107dc565b6000818152600a6020526040808220600301805460ff191690555182917fce24807f7e4b60b4e641462f13029fa5e5f79075bbc3f8e5cd43ecd19661d76091a250565b60008181526016602052604081208054600282015460019092018054606093859392916001600160a01b0390911690829061206e90613bb0565b80601f016020809104026020016040519081016040528092919081815260200182805461209a90613bb0565b80156120e75780601f106120bc576101008083540402835291602001916120e7565b820191906000526020600020905b8154815290600101906020018083116120ca57829003601f168201915b505050505091509250925092509193909250565b6000818152600a602052604090206003015460ff1661212c5760405162461bcd60e51b81526004016107dc90613ca3565b6000818152600a602052604090206001015442101561218d5760405162461bcd60e51b815260206004820152601960248201527f47616d6520686173206e6f742073746172746564207965742e0000000000000060448201526064016107dc565b6000818152600a60205260409020600201544211156121ee5760405162461bcd60e51b815260206004820152601760248201527f47616d652068617320616c726561647920656e6465642e00000000000000000060448201526064016107dc565b6000818152600a6020908152604080832033845260050190915290205460ff1615156001036122395760405163547daa4560e11b8152600481018290523360248201526044016107dc565b6000818152600a60209081526040808320600481018054600181810183559186528486200180546001600160a01b031916339081179091558086526005909201909352818420805460ff191690931790925551909183917f094906a9ec808476f8ae6475fedc23cbe15d386768dec2d2c9a604c69f66b9609190a350565b6122bf612774565b6122c881612d5d565b50565b6000818152600a602052604090206003015460ff16156122fd5760405162461bcd60e51b81526004016107dc90613c45565b6000818152600a60208190526040909120015460ff16156123575760405162461bcd60e51b815260206004820152601460248201527327232a1030b63932b0b23c9031b630b4b6b2b21760611b60448201526064016107dc565b6000818152600a60205260409020600701546123a95760405162461bcd60e51b81526020600482015260116024820152702737903bb4b73732b939903337bab7321760791b60448201526064016107dc565b6000805b6000838152600a6020526040902060070154811015612421576000838152600a602052604090206007018054339190839081106123ec576123ec613c74565b6000918252602090912001546001600160a01b03160361240f5760019150612421565b8061241981613c8a565b9150506123ad565b50806124675760405162461bcd60e51b81526020600482015260156024820152742cb7ba9030b932903737ba1030903bb4b73732b91760591b60448201526064016107dc565b6000828152600a602052604090819020600881015460099091015491516323b872dd60e01b815230600482015233602482015260448101929092526001600160a01b0316906323b872dd90606401600060405180830381600087803b1580156124cf57600080fd5b505af11580156124e3573d6000803e3d6000fd5b5050506000838152600a60208190526040808320909101805460ff191660011790555133925084917fec5f0dee1fc3c7beab746dbd5883eee3f1c9bc07fe02dd318c553c5243f52fea91a35050565b61253a612e06565b6000838152601560205260409020600181015490546001600160a01b0390911690600e6125678582613dc9565b506040805160608101825282815260208082018781526001600160a01b038616838501526000898152601690925292902081518155915190919060018201906125b09082613dc9565b5060409182015160029190910180546001600160a01b0319166001600160a01b039283161790556000838152600a602090815283822092861682526006909201909152206125ff600e82613e88565b50847f7873807bf6ddc50401cd3d29bbe0decee23fd4d68d273f4b5eb83cded4d2f172600e600f604051612634929190613fdf565b60405180910390a25050505050565b600083815260036020526040902054610100900460ff1661269a5760405162461bcd60e51b81526020600482015260116024820152701c995c5d595cdd081b9bdd08199bdd5b99607a1b60448201526064016107dc565b60008381526003602052604090205460ff16156126f95760405162461bcd60e51b815260206004820152601960248201527f5265717565737420616c72656164792066756c66696c6c65640000000000000060448201526064016107dc565b6000838152600360205260409020805460ff19166001908117825561272091018383613637565b50600083815260036020908152604091829020600201548251868152918201819052917f8b374a54afa880e6437b5a3523d974ab891c4f5df05bab48a27b97a71472cb79910160405180910390a150505050565b6000546001600160a01b03163314610a615760405162461bcd60e51b815260206004820152601660248201527527b7363c9031b0b63630b1363290313c9037bbb732b960511b60448201526064016107dc565b6127cf612e31565b6009805460ff60501b191690557f5db9ee0a495bf2e6ff9c91a7834c1ba4fdd244a5e8aa4e537bd38aeae4b073aa335b6040516001600160a01b03909116815260200160405180910390a1565b6060610fd46001600160a01b0383166014612e5b565b61283f8260008084612fda565b5050565b6060600061285083613058565b60010190506000816001600160401b0381111561286f5761286f61372b565b6040519080825280601f01601f191660200182016040528015612899576020820181803683370190505b5090508181016020015b600019016f181899199a1a9b1b9c1cb0b131b232b360811b600a86061a8153600a85049450846128a357509392505050565b80516000036128f75760405163fe936cb760e01b815260040160405180910390fd5b60a090910152565b6060600061290e610100613130565b90506129476040518060400160405280600c81526020016b31b7b232a637b1b0ba34b7b760a11b8152508261315190919063ffffffff16565b825161296590600281111561295e5761295e61400d565b829061316a565b6040805180820190915260088152676c616e677561676560c01b602082015261298f908290613151565b60408301516129a690801561295e5761295e61400d565b604080518082019091526006815265736f7572636560d01b60208201526129ce908290613151565b60608301516129de908290613151565b60a08301515115612a72576040805180820190915260048152636172677360e01b6020820152612a0f908290613151565b612a18816131a3565b60005b8360a0015151811015612a6857612a588460a001518281518110612a4157612a41613c74565b60200260200101518361315190919063ffffffff16565b612a6181613c8a565b9050612a1b565b50612a72816131c7565b60808301515115612b3657600083602001516002811115612a9557612a9561400d565b03612ab35760405163a80d31f760e01b815260040160405180910390fd5b60408051808201909152600f81526e39b2b1b932ba39a637b1b0ba34b7b760891b6020820152612ae4908290613151565b612afd8360200151600281111561295e5761295e61400d565b6040805180820190915260078152667365637265747360c81b6020820152612b26908290613151565b6080830151612b369082906131e5565b60c08301515115612bcf5760408051808201909152600981526862797465734172677360b81b6020820152612b6c908290613151565b612b75816131a3565b60005b8360c0015151811015612bc557612bb58460c001518281518110612b9e57612b9e613c74565b6020026020010151836131e590919063ffffffff16565b612bbe81613c8a565b9050612b78565b50612bcf816131c7565b515192915050565b6000807f00000000000000000000000000000000000000000000000000000000000000006001600160a01b031663461d27628688600188886040518663ffffffff1660e01b8152600401612c2f959493929190614023565b6020604051808303816000875af1158015612c4e573d6000803e3d6000fd5b505050506040513d601f19601f82011682018060405250810190612c729190613d62565b60405190915081907f1131472297a800fee664d1d89cfa8f7676ff07189ecc53f80bbb5f4969099db890600090a295945050505050565b612cb1612e06565b6009805460ff60501b1916600160501b1790557f62e78cea01bee320cd4e420270b5ea74000d11b0c9f74754ebdbfc544b05a2586127ff3390565b60607f92fd13387c7fe7befbc38d303d6468778fb9731bc4583f17d92989c6fcfdeaaa82604051602401612d2591511515815260200190565b60408051601f198184030181529190526020810180516001600160e01b03166001600160e01b03199093169290921790915292915050565b336001600160a01b03821603612db55760405162461bcd60e51b815260206004820152601760248201527f43616e6e6f74207472616e7366657220746f2073656c6600000000000000000060448201526064016107dc565b600180546001600160a01b0319166001600160a01b0383811691821790925560008054604051929316917fed8889f560326eb138920d842192f0eb3dd22b4f139c87a2c57538e05bae12789190a350565b600954600160501b900460ff1615610a615760405163d93c066560e01b815260040160405180910390fd5b600954600160501b900460ff16610a6157604051638dfc202b60e01b815260040160405180910390fd5b6060826000612e6b84600261406c565b612e76906002613b9d565b6001600160401b03811115612e8d57612e8d61372b565b6040519080825280601f01601f191660200182016040528015612eb7576020820181803683370190505b509050600360fc1b81600081518110612ed257612ed2613c74565b60200101906001600160f81b031916908160001a905350600f60fb1b81600181518110612f0157612f01613c74565b60200101906001600160f81b031916908160001a9053506000612f2585600261406c565b612f30906001613b9d565b90505b6001811115612fa8576f181899199a1a9b1b9c1cb0b131b232b360811b83600f1660108110612f6457612f64613c74565b1a60f81b828281518110612f7a57612f7a613c74565b60200101906001600160f81b031916908160001a90535060049290921c91612fa181614083565b9050612f33565b508115612fd25760405163e22e27eb60e01b815260048101869052602481018590526044016107dc565b949350505050565b8051600003612ffc576040516322ce3edd60e01b815260040160405180910390fd5b8383600281111561300f5761300f61400d565b908160028111156130225761302261400d565b905250604084018280156130385761303861400d565b908180156130485761304861400d565b9052506060909301929092525050565b60008072184f03e93ff9f4daa797ed6e38ed64bf6a1f0160401b83106130975772184f03e93ff9f4daa797ed6e38ed64bf6a1f0160401b830492506040015b6d04ee2d6d415b85acef810000000083106130c3576d04ee2d6d415b85acef8100000000830492506020015b662386f26fc1000083106130e157662386f26fc10000830492506010015b6305f5e10083106130f9576305f5e100830492506008015b612710831061310d57612710830492506004015b6064831061311f576064830492506002015b600a8310610fd45760010192915050565b613138613672565b805161314490836131f2565b5060006020820152919050565b61315e8260038351613269565b81516109589082613382565b81516131779060c26133aa565b5061283f828260405160200161318f91815260200190565b6040516020818303038152906040526131e5565b6131ae816004613413565b6001816020018181516131c19190613b9d565b90525050565b6131d2816007613413565b6001816020018181516131c19190613cd0565b61315e8260028351613269565b604080518082019091526060815260006020820152613212602083613ce3565b1561323a57613222602083613ce3565b61322d906020613cd0565b6132379083613b9d565b91505b60208084018390526040518085526000815290818401018181101561325e57600080fd5b604052509192915050565b6017816001600160401b03161161328f578251611a329060e0600585901b1683176133aa565b60ff816001600160401b0316116132cf5782516132b7906018611fe0600586901b16176133aa565b508251611a32906001600160401b038316600161342a565b61ffff816001600160401b0316116133105782516132f8906019611fe0600586901b16176133aa565b508251611a32906001600160401b038316600261342a565b63ffffffff816001600160401b03161161335357825161333b90601a611fe0600586901b16176133aa565b508251611a32906001600160401b038316600461342a565b825161336a90601b611fe0600586901b16176133aa565b508251611a32906001600160401b038316600861342a565b6040805180820190915260608152600060208201526133a3838384516134af565b9392505050565b60408051808201909152606081526000602082015282515160006133cf826001613b9d565b9050846020015182106133f0576133f0856133eb83600261406c565b613580565b8451602083820101858153508051821115613409578181525b5093949350505050565b815161095890601f611fe0600585901b16176133aa565b604080518082019091526060815260006020820152835151600061344e8285613b9d565b9050856020015181111561346b5761346b866133eb83600261406c565b6000600161347b8661010061417e565b6134859190613cd0565b905086518281018783198251161781525080518311156134a3578281525b50959695505050505050565b60408051808201909152606081526000602082015282518211156134d257600080fd5b83515160006134e18483613b9d565b905085602001518111156134fe576134fe866133eb83600261406c565b855180518382016020019160009180851115613518578482525b505050602086015b602086106135585780518252613537602083613b9d565b9150613544602082613b9d565b9050613551602087613cd0565b9550613520565b51815160001960208890036101000a0190811690199190911617905250849150509392505050565b815161358c83836131f2565b50611a328382613382565b8280548282559060005260206000209081019282156135ec579160200282015b828111156135ec57825182546001600160a01b0319166001600160a01b039091161782556020909201916001909101906135b7565b506135f89291506136a7565b5090565b8280548282559060005260206000209081019282156135ec579160200282015b828111156135ec57825182559160200191906001019061361c565b8280548282559060005260206000209081019282156135ec579160200282015b828111156135ec578235825591602001919060010190613657565b604051806040016040528061369a604051806040016040528060608152602001600081525090565b8152602001600081525090565b5b808211156135f857600081556001016136a8565b6000602082840312156136ce57600080fd5b5035919050565b600081518084526020808501945080840160005b83811015613705578151875295820195908201906001016136e9565b509495945050505050565b8215158152604060208201526000612fd260408301846136d5565b634e487b7160e01b600052604160045260246000fd5b600082601f83011261375257600080fd5b81356001600160401b038082111561376c5761376c61372b565b604051601f8301601f19908116603f011681019082821181831017156137945761379461372b565b816040528381528660208588010111156137ad57600080fd5b836020870160208301376000602085830101528094505050505092915050565b6000806000606084860312156137e257600080fd5b8335925060208401356001600160401b038082111561380057600080fd5b61380c87838801613741565b9350604086013591508082111561382257600080fd5b5061382f86828701613741565b9150509250925092565b60008060006040848603121561384e57600080fd5b8335925060208401356001600160401b038082111561386c57600080fd5b818601915086601f83011261388057600080fd5b81358181111561388f57600080fd5b8760208260051b85010111156138a457600080fd5b6020830194508093505050509250925092565b6000815180845260005b818110156138dd576020818501810151868301820152016138c1565b506000602082860101526020601f19601f83011685010191505092915050565b6020815260006133a360208301846138b7565b6020815260006133a360208301846136d5565b6000806020838503121561393657600080fd5b82356001600160401b038082111561394d57600080fd5b818501915085601f83011261396157600080fd5b81358181111561397057600080fd5b86602082850101111561398257600080fd5b60209290920196919550909350505050565b600081518084526020808501945080840160005b838110156137055781516001600160a01b0316875295820195908201906001016139a8565b6020815260006133a36020830184613994565b600080604083850312156139f357600080fd5b50508035926020909101359150565b604081526000613a156040830185613994565b6020838203818501528185518084528284019150828160051b85010183880160005b83811015613a6557601f19878403018552613a538383516138b7565b94860194925090850190600101613a37565b50909998505050505050505050565b80356001600160a01b0381168114611ef057600080fd5b600060208284031215613a9d57600080fd5b6133a382613a74565b60008060408385031215613ab957600080fd5b82359150613ac960208401613a74565b90509250929050565b600060208284031215613ae457600080fd5b81356001600160401b03811115613afa57600080fd5b612fd284828501613741565b8215158152604060208201526000612fd260408301846138b7565b600080600060608486031215613b3657600080fd5b83359250613b4660208501613a74565b9150604084013590509250925092565b838152606060208201526000613b6f60608301856138b7565b905060018060a01b0383166040830152949350505050565b634e487b7160e01b600052601160045260246000fd5b80820180821115610fd457610fd4613b87565b600181811c90821680613bc457607f821691505b602082108103613be457634e487b7160e01b600052602260045260246000fd5b50919050565b80358015158114611ef057600080fd5b60008060008060808587031215613c1057600080fd5b613c1985613bea565b9350613c2760208601613bea565b9250613c3560408601613bea565b9396929550929360600135925050565b60208082526015908201527423b0b6b29034b99039ba34b6361030b1ba34bb329760591b604082015260600190565b634e487b7160e01b600052603260045260246000fd5b600060018201613c9c57613c9c613b87565b5060010190565b60208082526013908201527223b0b6b29034b9903737ba1030b1ba34bb329760691b604082015260600190565b81810381811115610fd457610fd4613b87565b600082613d0057634e487b7160e01b600052601260045260246000fd5b500690565b60208152815160208201526020820151604082015261ffff60408301511660608201526000606083015163ffffffff80821660808501528060808601511660a0850152505060a083015160c080840152612fd260e08401826138b7565b600060208284031215613d7457600080fd5b5051919050565b601f82111561095857600081815260208120601f850160051c81016020861015613da25750805b601f850160051c820191505b81811015613dc157828155600101613dae565b505050505050565b81516001600160401b03811115613de257613de261372b565b613df681613df08454613bb0565b84613d7b565b602080601f831160018114613e2b5760008415613e135750858301515b600019600386901b1c1916600185901b178555613dc1565b600085815260208120601f198616915b82811015613e5a57888601518255948401946001909101908401613e3b565b5085821015613e785787850151600019600388901b60f8161c191681555b5050505050600190811b01905550565b818103613e93575050565b613e9d8254613bb0565b6001600160401b03811115613eb457613eb461372b565b613ec281613df08454613bb0565b6000601f821160018114613ef65760008315613ede5750848201545b600019600385901b1c1916600184901b178455613f5b565b600085815260209020601f19841690600086815260209020845b83811015613f305782860154825560019586019590910190602001613f10565b5085831015613f4e5781850154600019600388901b60f8161c191681555b50505060018360011b0184555b5050505050565b60008154613f6f81613bb0565b808552602060018381168015613f8c5760018114613fa657613fd4565b60ff1985168884015283151560051b880183019550613fd4565b866000528260002060005b85811015613fcc5781548a8201860152908301908401613fb1565b890184019650505b505050505092915050565b604081526000613ff26040830185613f62565b82810360208401526140048185613f62565b95945050505050565b634e487b7160e01b600052602160045260246000fd5b6001600160401b038616815260a06020820152600061404560a08301876138b7565b61ffff9590951660408301525063ffffffff92909216606083015260809091015292915050565b8082028115828204841417610fd457610fd4613b87565b60008161409257614092613b87565b506000190190565b600181815b808511156140d55781600019048211156140bb576140bb613b87565b808516156140c857918102915b93841c939080029061409f565b509250929050565b6000826140ec57506001610fd4565b816140f957506000610fd4565b816001811461410f576002811461411957614135565b6001915050610fd4565b60ff84111561412a5761412a613b87565b50506001821b610fd4565b5060208310610133831016604e8410600b8410161715614158575081810a610fd4565b614162838361409a565b806000190482111561417657614176613b87565b029392505050565b60006133a383836140dd56fea2646970667358221220d5bf79c99d02bec65127d9b88b87b5833b2357fc4e76d1c9850c75068faa7cc364736f6c63430008140033","linkReferences":{}},"methodIdentifiers":{"acceptOwnership()":"79ba5097","checkUpkeep(bytes)":"6e04ff0d","claimNFT(uint256)":"fe5c873a","convertAddressToString(address)":"5ab59312","createGame(uint256,uint256)":"60104cef","createGameDefault()":"c0722c99","createGameWithInterval(uint256)":"0411ac75","depositNFT(uint256,address,uint256)":"7d6f643b","endGame(uint256)":"d0399bb8","fulfillWinnerMt(uint256,uint256)":"47828219","fulfillWinners(uint256)":"8a8da05b","games(uint256)":"117a5b90","getGameCreator(uint256)":"7ad40c86","getGameEndTime(uint256)":"ee7bdc4f","getGameIsActive(uint256)":"185e2187","getGameParticipantScore(uint256,address)":"6f6410fd","getGameParticipants(uint256)":"45fa9549","getGameScores(uint256)":"55985b8f","getGameStartTime(uint256)":"b131d053","getLastRandomWords()":"3c256b24","getLastRequestId()":"19c2b4c3","getLastResponse()":"503f0475","getLastScoreRequest()":"5455d59c","getScoreResponse(bytes32)":"d03ae0aa","getVrfRequestStatus(uint256)":"07119431","getWinners(uint256)":"6b1426a4","handleOracleFulfillment(bytes32,bytes,bytes)":"0ca76175","joinGame(uint256)":"efaa55a0","nextGameId()":"b135bbb0","owner()":"8da5cb5b","pause()":"8456cb59","paused()":"5c975abb","performUpkeep(bytes)":"4585e33b","rawFulfillRandomWords(uint256,uint256[])":"1fe543e3","reclaimNFT(uint256)":"a08db82e","requestRandomWords(uint256)":"bc85777c","requestScoreForParticipant(uint256,address)":"6554e38a","s_lastError()":"4b0795a8","s_lastRequestId()":"b1e21749","s_lastResponse()":"3944ea3a","s_vrfCoordinator()":"9eccacf6","s_vrfRequests(uint256)":"2da27092","setCoordinator(address)":"8ea98117","transferOwnership(address)":"f2fde38b","unpause()":"3f4ba83a","vrfLastRequestId()":"7d058d4f","vrfRequestIds(uint256)":"425c9fa2"},"id":1}