{
    "abi": [
        {
            "type": "constructor",
            "inputs": [
                {
                    "name": "functionsRouter",
                    "type": "address",
                    "internalType": "address"
                },
                {
                    "name": "donId",
                    "type": "bytes32",
                    "internalType": "bytes32"
                },
                {
                    "name": "secretVersion",
                    "type": "uint64",
                    "internalType": "uint64"
                },
                {
                    "name": "secretSlot",
                    "type": "uint8",
                    "internalType": "uint8"
                },
                {
                    "name": "source",
                    "type": "string",
                    "internalType": "string"
                },
                {
                    "name": "subscriptionId",
                    "type": "uint64",
                    "internalType": "uint64"
                },
                {
                    "name": "_vrfSubscription",
                    "type": "uint256",
                    "internalType": "uint256"
                },
                {
                    "name": "_vrfCoordinator",
                    "type": "address",
                    "internalType": "address"
                }
            ],
            "stateMutability": "nonpayable"
        },
        {
            "type": "function",
            "name": "acceptOwnership",
            "inputs": [],
            "outputs": [],
            "stateMutability": "nonpayable"
        },
        {
            "type": "function",
            "name": "checkUpkeep",
            "inputs": [
                {
                    "name": "",
                    "type": "bytes",
                    "internalType": "bytes"
                }
            ],
            "outputs": [
                {
                    "name": "upkeepNeeded",
                    "type": "bool",
                    "internalType": "bool"
                },
                {
                    "name": "performData",
                    "type": "bytes",
                    "internalType": "bytes"
                }
            ],
            "stateMutability": "view"
        },
        {
            "type": "function",
            "name": "claimNFT",
            "inputs": [
                {
                    "name": "_gameId",
                    "type": "uint256",
                    "internalType": "uint256"
                }
            ],
            "outputs": [],
            "stateMutability": "nonpayable"
        },
        {
            "type": "function",
            "name": "convertAddressToString",
            "inputs": [
                {
                    "name": "_address",
                    "type": "address",
                    "internalType": "address"
                }
            ],
            "outputs": [
                {
                    "name": "",
                    "type": "string",
                    "internalType": "string"
                }
            ],
            "stateMutability": "pure"
        },
        {
            "type": "function",
            "name": "createGame",
            "inputs": [
                {
                    "name": "_startTime",
                    "type": "uint256",
                    "internalType": "uint256"
                },
                {
                    "name": "_endTime",
                    "type": "uint256",
                    "internalType": "uint256"
                }
            ],
            "outputs": [],
            "stateMutability": "nonpayable"
        },
        {
            "type": "function",
            "name": "createGameDefault",
            "inputs": [],
            "outputs": [],
            "stateMutability": "nonpayable"
        },
        {
            "type": "function",
            "name": "createGameWithInterval",
            "inputs": [
                {
                    "name": "_interval",
                    "type": "uint256",
                    "internalType": "uint256"
                }
            ],
            "outputs": [],
            "stateMutability": "nonpayable"
        },
        {
            "type": "function",
            "name": "depositNFT",
            "inputs": [
                {
                    "name": "_gameId",
                    "type": "uint256",
                    "internalType": "uint256"
                },
                {
                    "name": "_nftContract",
                    "type": "address",
                    "internalType": "address"
                },
                {
                    "name": "_tokenId",
                    "type": "uint256",
                    "internalType": "uint256"
                }
            ],
            "outputs": [],
            "stateMutability": "nonpayable"
        },
        {
            "type": "function",
            "name": "endGame",
            "inputs": [
                {
                    "name": "_gameId",
                    "type": "uint256",
                    "internalType": "uint256"
                }
            ],
            "outputs": [],
            "stateMutability": "nonpayable"
        },
        {
            "type": "function",
            "name": "fulfillWinnerMt",
            "inputs": [
                {
                    "name": "_gameId",
                    "type": "uint256",
                    "internalType": "uint256"
                },
                {
                    "name": "winnerIndex",
                    "type": "uint256",
                    "internalType": "uint256"
                }
            ],
            "outputs": [],
            "stateMutability": "nonpayable"
        },
        {
            "type": "function",
            "name": "fulfillWinners",
            "inputs": [
                {
                    "name": "_requestId",
                    "type": "uint256",
                    "internalType": "uint256"
                }
            ],
            "outputs": [],
            "stateMutability": "nonpayable"
        },
        {
            "type": "function",
            "name": "games",
            "inputs": [
                {
                    "name": "",
                    "type": "uint256",
                    "internalType": "uint256"
                }
            ],
            "outputs": [
                {
                    "name": "creator",
                    "type": "address",
                    "internalType": "address"
                },
                {
                    "name": "startTime",
                    "type": "uint256",
                    "internalType": "uint256"
                },
                {
                    "name": "endTime",
                    "type": "uint256",
                    "internalType": "uint256"
                },
                {
                    "name": "isActive",
                    "type": "bool",
                    "internalType": "bool"
                },
                {
                    "name": "nftContract",
                    "type": "address",
                    "internalType": "address"
                },
                {
                    "name": "nftTokenId",
                    "type": "uint256",
                    "internalType": "uint256"
                },
                {
                    "name": "nftClaimed",
                    "type": "bool",
                    "internalType": "bool"
                }
            ],
            "stateMutability": "view"
        },
        {
            "type": "function",
            "name": "getGameCreator",
            "inputs": [
                {
                    "name": "gameId",
                    "type": "uint256",
                    "internalType": "uint256"
                }
            ],
            "outputs": [
                {
                    "name": "",
                    "type": "address",
                    "internalType": "address"
                }
            ],
            "stateMutability": "view"
        },
        {
            "type": "function",
            "name": "getGameEndTime",
            "inputs": [
                {
                    "name": "gameId",
                    "type": "uint256",
                    "internalType": "uint256"
                }
            ],
            "outputs": [
                {
                    "name": "",
                    "type": "uint256",
                    "internalType": "uint256"
                }
            ],
            "stateMutability": "view"
        },
        {
            "type": "function",
            "name": "getGameIsActive",
            "inputs": [
                {
                    "name": "gameId",
                    "type": "uint256",
                    "internalType": "uint256"
                }
            ],
            "outputs": [
                {
                    "name": "",
                    "type": "bool",
                    "internalType": "bool"
                }
            ],
            "stateMutability": "view"
        },
        {
            "type": "function",
            "name": "getGameParticipantScore",
            "inputs": [
                {
                    "name": "gameId",
                    "type": "uint256",
                    "internalType": "uint256"
                },
                {
                    "name": "participant",
                    "type": "address",
                    "internalType": "address"
                }
            ],
            "outputs": [
                {
                    "name": "",
                    "type": "string",
                    "internalType": "string"
                }
            ],
            "stateMutability": "view"
        },
        {
            "type": "function",
            "name": "getGameParticipants",
            "inputs": [
                {
                    "name": "gameId",
                    "type": "uint256",
                    "internalType": "uint256"
                }
            ],
            "outputs": [
                {
                    "name": "",
                    "type": "address[]",
                    "internalType": "address[]"
                }
            ],
            "stateMutability": "view"
        },
        {
            "type": "function",
            "name": "getGameScores",
            "inputs": [
                {
                    "name": "gameId",
                    "type": "uint256",
                    "internalType": "uint256"
                }
            ],
            "outputs": [
                {
                    "name": "",
                    "type": "address[]",
                    "internalType": "address[]"
                },
                {
                    "name": "",
                    "type": "string[]",
                    "internalType": "string[]"
                }
            ],
            "stateMutability": "view"
        },
        {
            "type": "function",
            "name": "getGameStartTime",
            "inputs": [
                {
                    "name": "gameId",
                    "type": "uint256",
                    "internalType": "uint256"
                }
            ],
            "outputs": [
                {
                    "name": "",
                    "type": "uint256",
                    "internalType": "uint256"
                }
            ],
            "stateMutability": "view"
        },
        {
            "type": "function",
            "name": "getLastRandomWords",
            "inputs": [],
            "outputs": [
                {
                    "name": "",
                    "type": "uint256[]",
                    "internalType": "uint256[]"
                }
            ],
            "stateMutability": "view"
        },
        {
            "type": "function",
            "name": "getLastRequestId",
            "inputs": [],
            "outputs": [
                {
                    "name": "",
                    "type": "bytes32",
                    "internalType": "bytes32"
                }
            ],
            "stateMutability": "view"
        },
        {
            "type": "function",
            "name": "getLastResponse",
            "inputs": [],
            "outputs": [
                {
                    "name": "",
                    "type": "string",
                    "internalType": "string"
                }
            ],
            "stateMutability": "view"
        },
        {
            "type": "function",
            "name": "getLastScoreRequest",
            "inputs": [],
            "outputs": [
                {
                    "name": "",
                    "type": "uint256",
                    "internalType": "uint256"
                },
                {
                    "name": "",
                    "type": "address",
                    "internalType": "address"
                }
            ],
            "stateMutability": "view"
        },
        {
            "type": "function",
            "name": "getScoreResponse",
            "inputs": [
                {
                    "name": "requestId",
                    "type": "bytes32",
                    "internalType": "bytes32"
                }
            ],
            "outputs": [
                {
                    "name": "",
                    "type": "uint256",
                    "internalType": "uint256"
                },
                {
                    "name": "",
                    "type": "string",
                    "internalType": "string"
                },
                {
                    "name": "",
                    "type": "address",
                    "internalType": "address"
                }
            ],
            "stateMutability": "view"
        },
        {
            "type": "function",
            "name": "getVrfRequestStatus",
            "inputs": [
                {
                    "name": "_requestId",
                    "type": "uint256",
                    "internalType": "uint256"
                }
            ],
            "outputs": [
                {
                    "name": "fulfilled",
                    "type": "bool",
                    "internalType": "bool"
                },
                {
                    "name": "randomWords",
                    "type": "uint256[]",
                    "internalType": "uint256[]"
                }
            ],
            "stateMutability": "view"
        },
        {
            "type": "function",
            "name": "getWinners",
            "inputs": [
                {
                    "name": "gameId",
                    "type": "uint256",
                    "internalType": "uint256"
                }
            ],
            "outputs": [
                {
                    "name": "",
                    "type": "address[]",
                    "internalType": "address[]"
                }
            ],
            "stateMutability": "view"
        },
        {
            "type": "function",
            "name": "handleOracleFulfillment",
            "inputs": [
                {
                    "name": "requestId",
                    "type": "bytes32",
                    "internalType": "bytes32"
                },
                {
                    "name": "response",
                    "type": "bytes",
                    "internalType": "bytes"
                },
                {
                    "name": "err",
                    "type": "bytes",
                    "internalType": "bytes"
                }
            ],
            "outputs": [],
            "stateMutability": "nonpayable"
        },
        {
            "type": "function",
            "name": "joinGame",
            "inputs": [
                {
                    "name": "_gameId",
                    "type": "uint256",
                    "internalType": "uint256"
                }
            ],
            "outputs": [],
            "stateMutability": "nonpayable"
        },
        {
            "type": "function",
            "name": "nextGameId",
            "inputs": [],
            "outputs": [
                {
                    "name": "",
                    "type": "uint256",
                    "internalType": "uint256"
                }
            ],
            "stateMutability": "view"
        },
        {
            "type": "function",
            "name": "owner",
            "inputs": [],
            "outputs": [
                {
                    "name": "",
                    "type": "address",
                    "internalType": "address"
                }
            ],
            "stateMutability": "view"
        },
        {
            "type": "function",
            "name": "pause",
            "inputs": [],
            "outputs": [],
            "stateMutability": "nonpayable"
        },
        {
            "type": "function",
            "name": "paused",
            "inputs": [],
            "outputs": [
                {
                    "name": "",
                    "type": "bool",
                    "internalType": "bool"
                }
            ],
            "stateMutability": "view"
        },
        {
            "type": "function",
            "name": "performUpkeep",
            "inputs": [
                {
                    "name": "performData",
                    "type": "bytes",
                    "internalType": "bytes"
                }
            ],
            "outputs": [],
            "stateMutability": "nonpayable"
        },
        {
            "type": "function",
            "name": "rawFulfillRandomWords",
            "inputs": [
                {
                    "name": "requestId",
                    "type": "uint256",
                    "internalType": "uint256"
                },
                {
                    "name": "randomWords",
                    "type": "uint256[]",
                    "internalType": "uint256[]"
                }
            ],
            "outputs": [],
            "stateMutability": "nonpayable"
        },
        {
            "type": "function",
            "name": "reclaimNFT",
            "inputs": [
                {
                    "name": "_gameId",
                    "type": "uint256",
                    "internalType": "uint256"
                }
            ],
            "outputs": [],
            "stateMutability": "nonpayable"
        },
        {
            "type": "function",
            "name": "requestRandomWords",
            "inputs": [
                {
                    "name": "_gameId",
                    "type": "uint256",
                    "internalType": "uint256"
                }
            ],
            "outputs": [
                {
                    "name": "requestId",
                    "type": "uint256",
                    "internalType": "uint256"
                }
            ],
            "stateMutability": "nonpayable"
        },
        {
            "type": "function",
            "name": "requestScoreForParticipant",
            "inputs": [
                {
                    "name": "_gameId",
                    "type": "uint256",
                    "internalType": "uint256"
                },
                {
                    "name": "participant",
                    "type": "address",
                    "internalType": "address"
                }
            ],
            "outputs": [
                {
                    "name": "requestId",
                    "type": "bytes32",
                    "internalType": "bytes32"
                }
            ],
            "stateMutability": "nonpayable"
        },
        {
            "type": "function",
            "name": "s_lastError",
            "inputs": [],
            "outputs": [
                {
                    "name": "",
                    "type": "bytes",
                    "internalType": "bytes"
                }
            ],
            "stateMutability": "view"
        },
        {
            "type": "function",
            "name": "s_lastRequestId",
            "inputs": [],
            "outputs": [
                {
                    "name": "",
                    "type": "bytes32",
                    "internalType": "bytes32"
                }
            ],
            "stateMutability": "view"
        },
        {
            "type": "function",
            "name": "s_lastResponse",
            "inputs": [],
            "outputs": [
                {
                    "name": "",
                    "type": "bytes",
                    "internalType": "bytes"
                }
            ],
            "stateMutability": "view"
        },
        {
            "type": "function",
            "name": "s_vrfCoordinator",
            "inputs": [],
            "outputs": [
                {
                    "name": "",
                    "type": "address",
                    "internalType": "contract IVRFCoordinatorV2Plus"
                }
            ],
            "stateMutability": "view"
        },
        {
            "type": "function",
            "name": "s_vrfRequests",
            "inputs": [
                {
                    "name": "",
                    "type": "uint256",
                    "internalType": "uint256"
                }
            ],
            "outputs": [
                {
                    "name": "fulfilled",
                    "type": "bool",
                    "internalType": "bool"
                },
                {
                    "name": "exists",
                    "type": "bool",
                    "internalType": "bool"
                },
                {
                    "name": "gameId",
                    "type": "uint256",
                    "internalType": "uint256"
                }
            ],
            "stateMutability": "view"
        },
        {
            "type": "function",
            "name": "setCoordinator",
            "inputs": [
                {
                    "name": "_vrfCoordinator",
                    "type": "address",
                    "internalType": "address"
                }
            ],
            "outputs": [],
            "stateMutability": "nonpayable"
        },
        {
            "type": "function",
            "name": "transferOwnership",
            "inputs": [
                {
                    "name": "to",
                    "type": "address",
                    "internalType": "address"
                }
            ],
            "outputs": [],
            "stateMutability": "nonpayable"
        },
        {
            "type": "function",
            "name": "unpause",
            "inputs": [],
            "outputs": [],
            "stateMutability": "nonpayable"
        },
        {
            "type": "function",
            "name": "vrfLastRequestId",
            "inputs": [],
            "outputs": [
                {
                    "name": "",
                    "type": "uint256",
                    "internalType": "uint256"
                }
            ],
            "stateMutability": "view"
        },
        {
            "type": "function",
            "name": "vrfRequestIds",
            "inputs": [
                {
                    "name": "",
                    "type": "uint256",
                    "internalType": "uint256"
                }
            ],
            "outputs": [
                {
                    "name": "",
                    "type": "uint256",
                    "internalType": "uint256"
                }
            ],
            "stateMutability": "view"
        },
        {
            "type": "event",
            "name": "CheckedUpkeep",
            "inputs": [
                {
                    "name": "activeGame",
                    "type": "bool",
                    "indexed": false,
                    "internalType": "bool"
                },
                {
                    "name": "hasPassed",
                    "type": "bool",
                    "indexed": false,
                    "internalType": "bool"
                },
                {
                    "name": "hasPlayers",
                    "type": "bool",
                    "indexed": false,
                    "internalType": "bool"
                },
                {
                    "name": "blockTimestamp",
                    "type": "uint256",
                    "indexed": false,
                    "internalType": "uint256"
                }
            ],
            "anonymous": false
        },
        {
            "type": "event",
            "name": "CoordinatorSet",
            "inputs": [
                {
                    "name": "vrfCoordinator",
                    "type": "address",
                    "indexed": false,
                    "internalType": "address"
                }
            ],
            "anonymous": false
        },
        {
            "type": "event",
            "name": "OwnershipTransferRequested",
            "inputs": [
                {
                    "name": "from",
                    "type": "address",
                    "indexed": true,
                    "internalType": "address"
                },
                {
                    "name": "to",
                    "type": "address",
                    "indexed": true,
                    "internalType": "address"
                }
            ],
            "anonymous": false
        },
        {
            "type": "event",
            "name": "OwnershipTransferred",
            "inputs": [
                {
                    "name": "from",
                    "type": "address",
                    "indexed": true,
                    "internalType": "address"
                },
                {
                    "name": "to",
                    "type": "address",
                    "indexed": true,
                    "internalType": "address"
                }
            ],
            "anonymous": false
        },
        {
            "type": "event",
            "name": "Paused",
            "inputs": [
                {
                    "name": "account",
                    "type": "address",
                    "indexed": false,
                    "internalType": "address"
                }
            ],
            "anonymous": false
        },
        {
            "type": "event",
            "name": "RequestFulfilled",
            "inputs": [
                {
                    "name": "id",
                    "type": "bytes32",
                    "indexed": true,
                    "internalType": "bytes32"
                }
            ],
            "anonymous": false
        },
        {
            "type": "event",
            "name": "RequestSent",
            "inputs": [
                {
                    "name": "id",
                    "type": "bytes32",
                    "indexed": true,
                    "internalType": "bytes32"
                }
            ],
            "anonymous": false
        },
        {
            "type": "event",
            "name": "Response",
            "inputs": [
                {
                    "name": "requestId",
                    "type": "bytes32",
                    "indexed": true,
                    "internalType": "bytes32"
                },
                {
                    "name": "response",
                    "type": "bytes",
                    "indexed": false,
                    "internalType": "bytes"
                },
                {
                    "name": "err",
                    "type": "bytes",
                    "indexed": false,
                    "internalType": "bytes"
                }
            ],
            "anonymous": false
        },
        {
            "type": "event",
            "name": "Unpaused",
            "inputs": [
                {
                    "name": "account",
                    "type": "address",
                    "indexed": false,
                    "internalType": "address"
                }
            ],
            "anonymous": false
        },
        {
            "type": "event",
            "name": "VrfRequestFulfilled",
            "inputs": [
                {
                    "name": "requestId",
                    "type": "uint256",
                    "indexed": false,
                    "internalType": "uint256"
                },
                {
                    "name": "gameId",
                    "type": "uint256",
                    "indexed": false,
                    "internalType": "uint256"
                }
            ],
            "anonymous": false
        },
        {
            "type": "event",
            "name": "VrfRequestSent",
            "inputs": [
                {
                    "name": "requestId",
                    "type": "uint256",
                    "indexed": false,
                    "internalType": "uint256"
                },
                {
                    "name": "numWords",
                    "type": "uint32",
                    "indexed": false,
                    "internalType": "uint32"
                }
            ],
            "anonymous": false
        },
        {
            "type": "error",
            "name": "EmptyArgs",
            "inputs": []
        },
        {
            "type": "error",
            "name": "EmptySource",
            "inputs": []
        },
        {
            "type": "error",
            "name": "EnforcedPause",
            "inputs": []
        },
        {
            "type": "error",
            "name": "ExpectedPause",
            "inputs": []
        },
        {
            "type": "error",
            "name": "GameDoesNotExist",
            "inputs": [
                {
                    "name": "gameId",
                    "type": "uint256",
                    "internalType": "uint256"
                }
            ]
        },
        {
            "type": "error",
            "name": "NoInlineSecrets",
            "inputs": []
        },
        {
            "type": "error",
            "name": "OnlyCoordinatorCanFulfill",
            "inputs": [
                {
                    "name": "have",
                    "type": "address",
                    "internalType": "address"
                },
                {
                    "name": "want",
                    "type": "address",
                    "internalType": "address"
                }
            ]
        },
        {
            "type": "error",
            "name": "OnlyOwnerOrCoordinator",
            "inputs": [
                {
                    "name": "have",
                    "type": "address",
                    "internalType": "address"
                },
                {
                    "name": "owner",
                    "type": "address",
                    "internalType": "address"
                },
                {
                    "name": "coordinator",
                    "type": "address",
                    "internalType": "address"
                }
            ]
        },
        {
            "type": "error",
            "name": "OnlyRouterCanFulfill",
            "inputs": []
        },
        {
            "type": "error",
            "name": "ParticipantAlreadyInGame",
            "inputs": [
                {
                    "name": "gameId",
                    "type": "uint256",
                    "internalType": "uint256"
                },
                {
                    "name": "participant",
                    "type": "address",
                    "internalType": "address"
                }
            ]
        },
        {
            "type": "error",
            "name": "Raffle__UpkeepNotNeeded",
            "inputs": []
        },
        {
            "type": "error",
            "name": "StringsInsufficientHexLength",
            "inputs": [
                {
                    "name": "value",
                    "type": "uint256",
                    "internalType": "uint256"
                },
                {
                    "name": "length",
                    "type": "uint256",
                    "internalType": "uint256"
                }
            ]
        },
        {
            "type": "error",
            "name": "UnexpectedRequestID",
            "inputs": [
                {
                    "name": "requestId",
                    "type": "bytes32",
                    "internalType": "bytes32"
                }
            ]
        },
        {
            "type": "error",
            "name": "ZeroAddress",
            "inputs": []
        }
    ],
    "bytecode": {
        "object": "0x60c06040527f1770bdc7eec7771f7ba4ffd640f34260d7f095b79c92d34a5b2551d6f6cfd2be600855600980546001600160501b03191666020003002625a01790556000600b553480156200005357600080fd5b5060405162004626380380620046268339810160408190526200007691620002de565b6001600160a01b0388166080528181803380600081620000dd5760405162461bcd60e51b815260206004820152601860248201527f43616e6e6f7420736574206f776e657220746f207a65726f000000000000000060448201526064015b60405180910390fd5b600080546001600160a01b0319166001600160a01b038481169190911790915581161562000110576200011081620001e8565b5050506001600160a01b0381166200013b5760405163d92e233d60e01b815260040160405180910390fd5b600280546001600160a01b03199081166001600160a01b0393841617909155600480548216938316939093179092556005929092556009805460ff60501b1916905560108054909116918a169190911790556012879055601480546001600160401b0388166001600160481b0319909116176801000000000000000060ff8816021790556011620001cd8582620004ba565b5050506001600160401b031660a05250620005869350505050565b336001600160a01b03821603620002425760405162461bcd60e51b815260206004820152601760248201527f43616e6e6f74207472616e7366657220746f2073656c660000000000000000006044820152606401620000d4565b600180546001600160a01b0319166001600160a01b0383811691821790925560008054604051929316917fed8889f560326eb138920d842192f0eb3dd22b4f139c87a2c57538e05bae12789190a350565b80516001600160a01b0381168114620002ab57600080fd5b919050565b80516001600160401b0381168114620002ab57600080fd5b634e487b7160e01b600052604160045260246000fd5b600080600080600080600080610100898b031215620002fc57600080fd5b620003078962000293565b97506020808a015197506200031f60408b01620002b0565b965060608a015160ff811681146200033657600080fd5b60808b01519096506001600160401b03808211156200035457600080fd5b818c0191508c601f8301126200036957600080fd5b8151818111156200037e576200037e620002c8565b604051601f8201601f19908116603f01168101908382118183101715620003a957620003a9620002c8565b816040528281528f86848701011115620003c257600080fd5b600093505b82841015620003e65784840186015181850187015292850192620003c7565b60008684830101528099505050505050506200040560a08a01620002b0565b925060c089015191506200041c60e08a0162000293565b90509295985092959890939650565b600181811c908216806200044057607f821691505b6020821081036200046157634e487b7160e01b600052602260045260246000fd5b50919050565b601f821115620004b557600081815260208120601f850160051c81016020861015620004905750805b601f850160051c820191505b81811015620004b1578281556001016200049c565b5050505b505050565b81516001600160401b03811115620004d657620004d6620002c8565b620004ee81620004e784546200042b565b8462000467565b602080601f8311600181146200052657600084156200050d5750858301515b600019600386901b1c1916600185901b178555620004b1565b600085815260208120601f198616915b82811015620005575788860151825594840194600190910190840162000536565b5085821015620005765787850151600019600388901b60f8161c191681555b5050505050600190811b01905550565b60805160a051614073620005b360003960006113dc0152600081816108940152612a8f01526140736000f3fe608060405234801561001057600080fd5b50600436106102955760003560e01c80636b1426a411610167578063a08db82e116100ce578063d0399bb811610087578063d0399bb8146106e2578063d03ae0aa146106f5578063ee7bdc4f14610717578063efaa55a01461073a578063f2fde38b1461074d578063fe5c873a1461076057600080fd5b8063a08db82e1461067f578063b131d05314610692578063b135bbb0146106b5578063b1e21749146106be578063bc85777c146106c7578063c0722c99146106da57600080fd5b80637d6f643b116101205780637d6f643b1461061a5780638456cb591461062d5780638a8da05b146106355780638da5cb5b146106485780638ea98117146106595780639eccacf61461066c57600080fd5b80636b1426a4146105815780636e04ff0d146105945780636f6410fd146105b557806379ba5097146105c85780637ad40c86146105d05780637d058d4f1461061157600080fd5b8063425c9fa21161020b5780635455d59c116101c45780635455d59c146104d657806355985b8f146105155780635ab59312146105365780635c975abb1461054957806360104cef1461055b5780636554e38a1461056e57600080fd5b8063425c9fa21461046d5780634585e33b1461048057806345fa95491461049357806347828219146104b35780634b0795a8146104c6578063503f0475146104ce57600080fd5b806319c2b4c31161025d57806319c2b4c3146103c55780631fe543e3146103d75780632da27092146103ea5780633944ea3a1461043b5780633c256b24146104505780633f4ba83a1461046557600080fd5b80630411ac751461029a57806307119431146102af5780630ca76175146102d9578063117a5b90146102ec578063185e21871461038f575b600080fd5b6102ad6102a836600461356f565b610773565b005b6102c26102bd36600461356f565b610786565b6040516102d09291906135c3565b60405180910390f35b6102ad6102e7366004613680565b610889565b6103486102fa36600461356f565b600a60208190526000918252604090912080546001820154600283015460038401546008850154600986015495909601546001600160a01b03948516969395929460ff928316941692911687565b604080516001600160a01b03988916815260208101979097528601949094529115156060850152909316608083015260a082019290925290151560c082015260e0016102d0565b6103b561039d36600461356f565b6000908152600a602052604090206003015460ff1690565b60405190151581526020016102d0565b600d545b6040519081526020016102d0565b6102ad6103e53660046136ec565b61090d565b61041e6103f836600461356f565b6003602052600090815260409020805460029091015460ff808316926101009004169083565b6040805193151584529115156020840152908201526060016102d0565b61044361095d565b6040516102d091906137b0565b6104586109eb565b6040516102d091906137c3565b6102ad610a51565b6103c961047b36600461356f565b610a63565b6102ad61048e3660046137d6565b610a84565b6104a66104a136600461356f565b610afc565b6040516102d09190613880565b6102ad6104c1366004613893565b610b6b565b610443610d1d565b610443610d2a565b600d54600090815260156020526040902080546001909101546001600160a01b0316604080519283526001600160a01b039091166020830152016102d0565b61052861052336600461356f565b610db3565b6040516102d09291906138b5565b61044361054436600461393e565b610f9c565b600954600160501b900460ff166103b5565b6102ad610569366004613893565b610fad565b6103c961057c366004613959565b6110a3565b6104a661058f36600461356f565b611463565b6105a76105a2366004613985565b6114d0565b6040516102d09291906139b9565b6104436105c3366004613959565b61158e565b6102ad611648565b6105f96105de36600461356f565b6000908152600a60205260409020546001600160a01b031690565b6040516001600160a01b0390911681526020016102d0565b6103c960075481565b6102ad6106283660046139d4565b6116f2565b6102ad611846565b6102ad61064336600461356f565b611856565b6000546001600160a01b03166105f9565b6102ad61066736600461393e565b611995565b6002546105f9906001600160a01b031681565b6102ad61068d36600461356f565b611a87565b6103c96106a036600461356f565b6000908152600a602052604090206001015490565b6103c9600b5481565b6103c9600d5481565b6103c96106d536600461356f565b611c2b565b6102ad611e27565b6102ad6106f036600461356f565b611e37565b61070861070336600461356f565b611f3e565b6040516102d093929190613a09565b6103c961072536600461356f565b6000908152600a602052604090206002015490565b6102ad61074836600461356f565b612005565b6102ad61075b36600461393e565b612195565b6102ad61076e36600461356f565b6121a9565b610781426105698382613a50565b600c55565b600081815260036020526040812054606090610100900460ff166107e55760405162461bcd60e51b81526020600482015260116024820152701c995c5d595cdd081b9bdd08199bdd5b99607a1b60448201526064015b60405180910390fd5b60008381526003602090815260408083208151608081018352815460ff808216151583526101009091041615158185015260018201805484518187028101870186528181529295939486019383018282801561086057602002820191906000526020600020905b81548152602001906001019080831161084c575b505050505081526020016002820154815250509050806000015181604001519250925050915091565b336001600160a01b037f000000000000000000000000000000000000000000000000000000000000000016146108d25760405163c6829f8360e01b815260040160405180910390fd5b6108dd8383836123e5565b60405183907f85e1543bf2f84fe80c6badbce3648c8539ad1df4d2b3d822938ca0538be727e690600090a2505050565b6002546001600160a01b0316331461094d5760025460405163073e64fd60e21b81523360048201526001600160a01b0390911660248201526044016107dc565b6109588383836124f6565b505050565b600e805461096a90613a63565b80601f016020809104026020016040519081016040528092919081815260200182805461099690613a63565b80156109e35780601f106109b8576101008083540402835291602001916109e3565b820191906000526020600020905b8154815290600101906020018083116109c657829003601f168201915b505050505081565b600754600090815260036020908152604091829020600101805483518184028101840190945280845260609392830182828015610a4757602002820191906000526020600020905b815481526020019060010190808311610a33575b5050505050905090565b610a59612627565b610a6161267a565b565b60068181548110610a7357600080fd5b600091825260209091200154905081565b6000808080610a9585870187613aad565b93509350935093507ffbd4dd195fd0b96a07b166a978fd395f5a414e87941d8a1c653eae647242a6b984848484604051610aec94939291909315158452911515602084015215156040830152606082015260800190565b60405180910390a1505050505050565b6000818152600a6020908152604091829020600401805483518184028101840190945280845260609392830182828015610b5f57602002820191906000526020600020905b81546001600160a01b03168152600190910190602001808311610b41575b50505050509050919050565b610b73612627565b6000828152600a602052604090206003015460ff1615610ba55760405162461bcd60e51b81526004016107dc90613af8565b6000828152600a6020526040902060040154610bfc5760405162461bcd60e51b81526020600482015260166024820152752737903830b93a34b1b4b830b73a39903337bab7321760511b60448201526064016107dc565b6000828152600a602052604090206007015415610c545760405162461bcd60e51b81526020600482015260166024820152752bb4b73732b9399030b63932b0b23c903337bab7321760511b60448201526064016107dc565b6000828152600a60205260409020600401548110610cb45760405162461bcd60e51b815260206004820152601a60248201527f57696e6e657220696e646578206f7574206f6620626f756e647300000000000060448201526064016107dc565b6000828152600a6020526040902060048101805460079092019183908110610cde57610cde613b27565b60009182526020808320909101548354600181018555938352912090910180546001600160a01b0319166001600160a01b039092169190911790555050565b600f805461096a90613a63565b6060600e8054610d3990613a63565b80601f0160208091040260200160405190810160405280929190818152602001828054610d6590613a63565b8015610a475780601f10610d8757610100808354040283529160200191610a47565b820191906000526020600020905b815481529060010190602001808311610d9557509395945050505050565b6060806000600a6000858152602001908152602001600020600401805480602002602001604051908101604052809291908181526020018280548015610e2257602002820191906000526020600020905b81546001600160a01b03168152600190910190602001808311610e04575b50505050509050600081516001600160401b03811115610e4457610e446135de565b604051908082528060200260200182016040528015610e7757816020015b6060815260200190600190039081610e625790505b50905060005b8251811015610f9157600a60008781526020019081526020016000206006016000848381518110610eb057610eb0613b27565b60200260200101516001600160a01b03166001600160a01b031681526020019081526020016000208054610ee390613a63565b80601f0160208091040260200160405190810160405280929190818152602001828054610f0f90613a63565b8015610f5c5780601f10610f3157610100808354040283529160200191610f5c565b820191906000526020600020905b815481529060010190602001808311610f3f57829003601f168201915b5050505050828281518110610f7357610f73613b27565b60200260200101819052508080610f8990613b3d565b915050610e7d565b509094909350915050565b6060610fa7826126cf565b92915050565b8181116110075760405162461bcd60e51b815260206004820152602260248201527f456e642074696d65206d7573742062652061667465722073746172742074696d604482015261329760f11b60648201526084016107dc565b600b546000908152600a6020908152604080832080546001600160a01b0319163317815560018082018790556002820186905560038201805460ff19169091179055815193845291830190819052915190916110689160048401919061344a565b50604080516000815260208101918290525161108891600784019161344a565b50600b805490600061109983613b3d565b9190505550505050565b6000828152600a602090815260408083206001600160a01b03851684526005019091528120548390839060ff166111355760405162461bcd60e51b815260206004820152603060248201527f476976656e2061646472657373206973206e6f7420612070617274696369706160448201526f373a1034b7103a3434b99033b0b6b29760811b60648201526084016107dc565b6000858152600a602052604090206003015460ff166111665760405162461bcd60e51b81526004016107dc90613b56565b6000858152600a6020526040902060010154421080159061119857506000858152600a60205260409020600201544211155b6111ee5760405162461bcd60e51b815260206004820152602160248201527f47616d65206973206e6f742077697468696e2061637469766520706572696f646044820152601760f91b60648201526084016107dc565b6000858152600a60205260409020546001600160a01b031633146112695760405162461bcd60e51b815260206004820152602c60248201527f4f6e6c79207468652067616d652063726561746f722063616e2072657175657360448201526b3a103a34329039b1b7b9329760a11b60648201526084016107dc565b6112aa6040805160e0810190915280600081526020016000815260200160008152602001606081526020016060815260200160608152602001606081525090565b611347601180546112ba90613a63565b80601f01602080910402602001604051908101604052809291908181526020018280546112e690613a63565b80156113335780601f1061130857610100808354040283529160200191611333565b820191906000526020600020905b81548152906001019060200180831161131657829003601f168201915b5050505050826126e590919063ffffffff16565b60408051600280825260608201909252600091816020015b606081526020019060019003908161135f57905050905061137f876126f6565b8160008151811061139257611392613b27565b60200260200101819052506113a686610f9c565b816001815181106113b9576113b9613b27565b60209081029190910101526113ce8282612788565b6114076113da836127b2565b7f0000000000000000000000000000000000000000000000000000000000000000620493e0601254612a8a565b600d818155604080518082018252998a526001600160a01b039889166020808c019182526000948552601590529220985189559051600190980180546001600160a01b0319169890971697909717909555505092549392505050565b6000818152600a6020908152604091829020600701805483518184028101840190945280845260609392830182828015610b5f576020028201919060005260206000209081546001600160a01b03168152600190910190602001808311610b415750505050509050919050565b60006060815b600b54811015611588576000818152600a602052604081206003810154600c5460019092015460ff90911692919061150e9042613b83565b6000858152600a60205260409020600401549110915015158280156115305750805b156115725760408051841515602082015283151591810191909152811515606082015242608082015260a0016040516020818303038152906040529450600195505b505050808061158090613b3d565b9150506114d6565b50915091565b6000828152600a602090815260408083206001600160a01b038516845260060190915290208054606091906115c290613a63565b80601f01602080910402602001604051908101604052809291908181526020018280546115ee90613a63565b801561163b5780601f106116105761010080835404028352916020019161163b565b820191906000526020600020905b81548152906001019060200180831161161e57829003601f168201915b5050505050905092915050565b6001546001600160a01b0316331461169b5760405162461bcd60e51b815260206004820152601660248201527526bab9ba10313290383937b837b9b2b21037bbb732b960511b60448201526064016107dc565b60008054336001600160a01b0319808316821784556001805490911690556040516001600160a01b0390921692909183917f8be0079c531659141344cd1fd0a4f28419497f9722a3daafe3b4186f6b6457e091a350565b6000838152600a60205260409020546001600160a01b0316331461176b5760405162461bcd60e51b815260206004820152602a60248201527f4f6e6c79207468652067616d652063726561746f722063616e206465706f73696044820152693a103a34329027232a1760b11b60648201526084016107dc565b6000838152600a602052604090206003015460ff1661179c5760405162461bcd60e51b81526004016107dc90613b56565b6040516323b872dd60e01b8152336004820152306024820152604481018290526001600160a01b038316906323b872dd90606401600060405180830381600087803b1580156117ea57600080fd5b505af11580156117fe573d6000803e3d6000fd5b505050600093845250600a602081905260409093206008810180546001600160a01b0319166001600160a01b039490941693909317909255600982015501805460ff19169055565b61184e612627565b610a61612b5c565b61185e612627565b6000818152600360209081526040808320600101805482518185028101850190935280835291929091908301828280156118b757602002820191906000526020600020905b8154815260200190600101908083116118a3575b5050506000858152600360205260408120600201549394509150505b825181101561198f576000828152600a6020526040812060040154845185908490811061190257611902613b27565b60200260200101516119149190613b96565b6000848152600a602052604090206004810180549293506007909101918390811061194157611941613b27565b60009182526020808320909101548354600181018555938352912090910180546001600160a01b0319166001600160a01b03909216919091179055508061198781613b3d565b9150506118d3565b50505050565b6000546001600160a01b031633148015906119bb57506002546001600160a01b03163314155b15611a0c57336119d36000546001600160a01b031690565b60025460405163061db9c160e01b81526001600160a01b03938416600482015291831660248301529190911660448201526064016107dc565b6001600160a01b038116611a335760405163d92e233d60e01b815260040160405180910390fd5b600280546001600160a01b0319166001600160a01b0383169081179091556040519081527fd1a6a14209a385a964d036e404cb5cfb71f4000cdb03c9366292430787261be69060200160405180910390a150565b6000818152600a60205260409020546001600160a01b03163314611b005760405162461bcd60e51b815260206004820152602a60248201527f4f6e6c79207468652067616d652063726561746f722063616e207265636c616960448201526936903a34329027232a1760b11b60648201526084016107dc565b6000818152600a602052604090206003015460ff1615611b325760405162461bcd60e51b81526004016107dc90613af8565b6000818152600a60208190526040909120015460ff1615611b8c5760405162461bcd60e51b815260206004820152601460248201527327232a1030b63932b0b23c9031b630b4b6b2b21760611b60448201526064016107dc565b6000818152600a602052604090819020600881015460099091015491516323b872dd60e01b815230600482015233602482015260448101929092526001600160a01b0316906323b872dd90606401600060405180830381600087803b158015611bf457600080fd5b505af1158015611c08573d6000803e3d6000fd5b505050600091825250600a6020819052604090912001805460ff19166001179055565b6000611c35612627565b6004546040805160c081018252600854815260055460208083019190915260095461ffff6401000000008204168385015263ffffffff808216606085015266010000000000009091041660808301528251908101909252600082526001600160a01b0390921691639b1c385e9160a0820190611cb090612b9f565b8152506040518263ffffffff1660e01b8152600401611ccf9190613bb8565b6020604051808303816000875af1158015611cee573d6000803e3d6000fd5b505050506040513d601f19601f82011682018060405250810190611d129190613c15565b6040805160808101825260008082526001602080840182815285518481528083018752858701908152606086018a9052878552600383529590932084518154945161ffff1990951690151561ff00191617610100941515949094029390931783559351805195965092949193611d8e93918501929101906134af565b5060609190910151600290910155600680546001810182556000919091527ff652222313e28459528d920b65115c16c04f3efc82aaedc97be59f3f377c0d3f01819055600781905560095460408051838152660100000000000090920463ffffffff1660208301527fb478b40bf0d6ab2120b57e456db91df45395850da43f8b7a6f16c4b0568e17b8910160405180910390a15b919050565b610a614261056981610e10613a50565b6000818152600a60205260409020546001600160a01b0316331480611e6657506000546001600160a01b031633145b611ec25760405162461bcd60e51b815260206004820152602760248201527f4f6e6c79207468652067616d652063726561746f722063616e20656e64207468604482015266329033b0b6b29760c91b60648201526084016107dc565b6000818152600a602052604090206003015460ff16611f235760405162461bcd60e51b815260206004820152601960248201527f47616d6520697320616c726561647920696e6163746976652e0000000000000060448201526064016107dc565b6000908152600a60205260409020600301805460ff19169055565b60008181526016602052604081208054600282015460019092018054606093859392916001600160a01b03909116908290611f7890613a63565b80601f0160208091040260200160405190810160405280929190818152602001828054611fa490613a63565b8015611ff15780601f10611fc657610100808354040283529160200191611ff1565b820191906000526020600020905b815481529060010190602001808311611fd457829003601f168201915b505050505091509250925092509193909250565b6000818152600a602052604090206003015460ff166120365760405162461bcd60e51b81526004016107dc90613b56565b6000818152600a60205260409020600101544210156120975760405162461bcd60e51b815260206004820152601960248201527f47616d6520686173206e6f742073746172746564207965742e0000000000000060448201526064016107dc565b6000818152600a60205260409020600201544211156120f85760405162461bcd60e51b815260206004820152601760248201527f47616d652068617320616c726561647920656e6465642e00000000000000000060448201526064016107dc565b6000818152600a6020908152604080832033845260050190915290205460ff1615156001036121435760405163547daa4560e11b8152600481018290523360248201526044016107dc565b6000908152600a60209081526040808320600481018054600181810183559186528486200180546001600160a01b0319163390811790915585526005909101909252909120805460ff19169091179055565b61219d612627565b6121a681612c10565b50565b6000818152600a602052604090206003015460ff16156121db5760405162461bcd60e51b81526004016107dc90613af8565b6000818152600a60208190526040909120015460ff16156122355760405162461bcd60e51b815260206004820152601460248201527327232a1030b63932b0b23c9031b630b4b6b2b21760611b60448201526064016107dc565b6000818152600a60205260409020600701546122875760405162461bcd60e51b81526020600482015260116024820152702737903bb4b73732b939903337bab7321760791b60448201526064016107dc565b6000805b6000838152600a60205260409020600701548110156122ff576000838152600a602052604090206007018054339190839081106122ca576122ca613b27565b6000918252602090912001546001600160a01b0316036122ed57600191506122ff565b806122f781613b3d565b91505061228b565b50806123455760405162461bcd60e51b81526020600482015260156024820152742cb7ba9030b932903737ba1030903bb4b73732b91760591b60448201526064016107dc565b6000828152600a602052604090819020600881015460099091015491516323b872dd60e01b815230600482015233602482015260448101929092526001600160a01b0316906323b872dd90606401600060405180830381600087803b1580156123ad57600080fd5b505af11580156123c1573d6000803e3d6000fd5b50505060009283525050600a6020819052604090912001805460ff19166001179055565b6123ed612cb9565b6000838152601560205260409020600181015490546001600160a01b0390911690600e61241a8582613c7c565b506040805160608101825282815260208082018781526001600160a01b038616838501526000898152601690925292902081518155915190919060018201906124639082613c7c565b5060409182015160029190910180546001600160a01b0319166001600160a01b039283161790556000838152600a602090815283822092861682526006909201909152206124b2600e82613d3b565b50847f7873807bf6ddc50401cd3d29bbe0decee23fd4d68d273f4b5eb83cded4d2f172600e600f6040516124e7929190613e92565b60405180910390a25050505050565b600083815260036020526040902054610100900460ff1661254d5760405162461bcd60e51b81526020600482015260116024820152701c995c5d595cdd081b9bdd08199bdd5b99607a1b60448201526064016107dc565b60008381526003602052604090205460ff16156125ac5760405162461bcd60e51b815260206004820152601960248201527f5265717565737420616c72656164792066756c66696c6c65640000000000000060448201526064016107dc565b6000838152600360205260409020805460ff1916600190811782556125d3910183836134ea565b50600083815260036020908152604091829020600201548251868152918201819052917f8b374a54afa880e6437b5a3523d974ab891c4f5df05bab48a27b97a71472cb79910160405180910390a150505050565b6000546001600160a01b03163314610a615760405162461bcd60e51b815260206004820152601660248201527527b7363c9031b0b63630b1363290313c9037bbb732b960511b60448201526064016107dc565b612682612ce4565b6009805460ff60501b191690557f5db9ee0a495bf2e6ff9c91a7834c1ba4fdd244a5e8aa4e537bd38aeae4b073aa335b6040516001600160a01b03909116815260200160405180910390a1565b6060610fa76001600160a01b0383166014612d0e565b6126f28260008084612e8d565b5050565b6060600061270383612f0b565b60010190506000816001600160401b03811115612722576127226135de565b6040519080825280601f01601f19166020018201604052801561274c576020820181803683370190505b5090508181016020015b600019016f181899199a1a9b1b9c1cb0b131b232b360811b600a86061a8153600a850494508461275657509392505050565b80516000036127aa5760405163fe936cb760e01b815260040160405180910390fd5b60a090910152565b606060006127c1610100612fe3565b90506127fa6040518060400160405280600c81526020016b31b7b232a637b1b0ba34b7b760a11b8152508261300490919063ffffffff16565b825161281890600281111561281157612811613ec0565b829061301d565b6040805180820190915260088152676c616e677561676560c01b6020820152612842908290613004565b604083015161285990801561281157612811613ec0565b604080518082019091526006815265736f7572636560d01b6020820152612881908290613004565b6060830151612891908290613004565b60a08301515115612925576040805180820190915260048152636172677360e01b60208201526128c2908290613004565b6128cb81613056565b60005b8360a001515181101561291b5761290b8460a0015182815181106128f4576128f4613b27565b60200260200101518361300490919063ffffffff16565b61291481613b3d565b90506128ce565b506129258161307a565b608083015151156129e95760008360200151600281111561294857612948613ec0565b036129665760405163a80d31f760e01b815260040160405180910390fd5b60408051808201909152600f81526e39b2b1b932ba39a637b1b0ba34b7b760891b6020820152612997908290613004565b6129b08360200151600281111561281157612811613ec0565b6040805180820190915260078152667365637265747360c81b60208201526129d9908290613004565b60808301516129e9908290613098565b60c08301515115612a825760408051808201909152600981526862797465734172677360b81b6020820152612a1f908290613004565b612a2881613056565b60005b8360c0015151811015612a7857612a688460c001518281518110612a5157612a51613b27565b60200260200101518361309890919063ffffffff16565b612a7181613b3d565b9050612a2b565b50612a828161307a565b515192915050565b6000807f00000000000000000000000000000000000000000000000000000000000000006001600160a01b031663461d27628688600188886040518663ffffffff1660e01b8152600401612ae2959493929190613ed6565b6020604051808303816000875af1158015612b01573d6000803e3d6000fd5b505050506040513d601f19601f82011682018060405250810190612b259190613c15565b60405190915081907f1131472297a800fee664d1d89cfa8f7676ff07189ecc53f80bbb5f4969099db890600090a295945050505050565b612b64612cb9565b6009805460ff60501b1916600160501b1790557f62e78cea01bee320cd4e420270b5ea74000d11b0c9f74754ebdbfc544b05a2586126b23390565b60607f92fd13387c7fe7befbc38d303d6468778fb9731bc4583f17d92989c6fcfdeaaa82604051602401612bd891511515815260200190565b60408051601f198184030181529190526020810180516001600160e01b03166001600160e01b03199093169290921790915292915050565b336001600160a01b03821603612c685760405162461bcd60e51b815260206004820152601760248201527f43616e6e6f74207472616e7366657220746f2073656c6600000000000000000060448201526064016107dc565b600180546001600160a01b0319166001600160a01b0383811691821790925560008054604051929316917fed8889f560326eb138920d842192f0eb3dd22b4f139c87a2c57538e05bae12789190a350565b600954600160501b900460ff1615610a615760405163d93c066560e01b815260040160405180910390fd5b600954600160501b900460ff16610a6157604051638dfc202b60e01b815260040160405180910390fd5b6060826000612d1e846002613f1f565b612d29906002613a50565b6001600160401b03811115612d4057612d406135de565b6040519080825280601f01601f191660200182016040528015612d6a576020820181803683370190505b509050600360fc1b81600081518110612d8557612d85613b27565b60200101906001600160f81b031916908160001a905350600f60fb1b81600181518110612db457612db4613b27565b60200101906001600160f81b031916908160001a9053506000612dd8856002613f1f565b612de3906001613a50565b90505b6001811115612e5b576f181899199a1a9b1b9c1cb0b131b232b360811b83600f1660108110612e1757612e17613b27565b1a60f81b828281518110612e2d57612e2d613b27565b60200101906001600160f81b031916908160001a90535060049290921c91612e5481613f36565b9050612de6565b508115612e855760405163e22e27eb60e01b815260048101869052602481018590526044016107dc565b949350505050565b8051600003612eaf576040516322ce3edd60e01b815260040160405180910390fd5b83836002811115612ec257612ec2613ec0565b90816002811115612ed557612ed5613ec0565b90525060408401828015612eeb57612eeb613ec0565b90818015612efb57612efb613ec0565b9052506060909301929092525050565b60008072184f03e93ff9f4daa797ed6e38ed64bf6a1f0160401b8310612f4a5772184f03e93ff9f4daa797ed6e38ed64bf6a1f0160401b830492506040015b6d04ee2d6d415b85acef81000000008310612f76576d04ee2d6d415b85acef8100000000830492506020015b662386f26fc100008310612f9457662386f26fc10000830492506010015b6305f5e1008310612fac576305f5e100830492506008015b6127108310612fc057612710830492506004015b60648310612fd2576064830492506002015b600a8310610fa75760010192915050565b612feb613525565b8051612ff790836130a5565b5060006020820152919050565b613011826003835161311c565b81516109589082613235565b815161302a9060c261325d565b506126f2828260405160200161304291815260200190565b604051602081830303815290604052613098565b6130618160046132c6565b6001816020018181516130749190613a50565b90525050565b6130858160076132c6565b6001816020018181516130749190613b83565b613011826002835161311c565b6040805180820190915260608152600060208201526130c5602083613b96565b156130ed576130d5602083613b96565b6130e0906020613b83565b6130ea9083613a50565b91505b60208084018390526040518085526000815290818401018181101561311157600080fd5b604052509192915050565b6017816001600160401b03161161314257825161198f9060e0600585901b16831761325d565b60ff816001600160401b03161161318257825161316a906018611fe0600586901b161761325d565b50825161198f906001600160401b03831660016132dd565b61ffff816001600160401b0316116131c35782516131ab906019611fe0600586901b161761325d565b50825161198f906001600160401b03831660026132dd565b63ffffffff816001600160401b0316116132065782516131ee90601a611fe0600586901b161761325d565b50825161198f906001600160401b03831660046132dd565b825161321d90601b611fe0600586901b161761325d565b50825161198f906001600160401b03831660086132dd565b60408051808201909152606081526000602082015261325683838451613362565b9392505050565b6040805180820190915260608152600060208201528251516000613282826001613a50565b9050846020015182106132a3576132a38561329e836002613f1f565b613433565b84516020838201018581535080518211156132bc578181525b5093949350505050565b815161095890601f611fe0600585901b161761325d565b60408051808201909152606081526000602082015283515160006133018285613a50565b9050856020015181111561331e5761331e8661329e836002613f1f565b6000600161332e86610100614031565b6133389190613b83565b90508651828101878319825116178152508051831115613356578281525b50959695505050505050565b604080518082019091526060815260006020820152825182111561338557600080fd5b83515160006133948483613a50565b905085602001518111156133b1576133b18661329e836002613f1f565b8551805183820160200191600091808511156133cb578482525b505050602086015b6020861061340b57805182526133ea602083613a50565b91506133f7602082613a50565b9050613404602087613b83565b95506133d3565b51815160001960208890036101000a0190811690199190911617905250849150509392505050565b815161343f83836130a5565b5061198f8382613235565b82805482825590600052602060002090810192821561349f579160200282015b8281111561349f57825182546001600160a01b0319166001600160a01b0390911617825560209092019160019091019061346a565b506134ab92915061355a565b5090565b82805482825590600052602060002090810192821561349f579160200282015b8281111561349f5782518255916020019190600101906134cf565b82805482825590600052602060002090810192821561349f579160200282015b8281111561349f57823582559160200191906001019061350a565b604051806040016040528061354d604051806040016040528060608152602001600081525090565b8152602001600081525090565b5b808211156134ab576000815560010161355b565b60006020828403121561358157600080fd5b5035919050565b600081518084526020808501945080840160005b838110156135b85781518752958201959082019060010161359c565b509495945050505050565b8215158152604060208201526000612e856040830184613588565b634e487b7160e01b600052604160045260246000fd5b600082601f83011261360557600080fd5b81356001600160401b038082111561361f5761361f6135de565b604051601f8301601f19908116603f01168101908282118183101715613647576136476135de565b8160405283815286602085880101111561366057600080fd5b836020870160208301376000602085830101528094505050505092915050565b60008060006060848603121561369557600080fd5b8335925060208401356001600160401b03808211156136b357600080fd5b6136bf878388016135f4565b935060408601359150808211156136d557600080fd5b506136e2868287016135f4565b9150509250925092565b60008060006040848603121561370157600080fd5b8335925060208401356001600160401b038082111561371f57600080fd5b818601915086601f83011261373357600080fd5b81358181111561374257600080fd5b8760208260051b850101111561375757600080fd5b6020830194508093505050509250925092565b6000815180845260005b8181101561379057602081850181015186830182015201613774565b506000602082860101526020601f19601f83011685010191505092915050565b602081526000613256602083018461376a565b6020815260006132566020830184613588565b600080602083850312156137e957600080fd5b82356001600160401b038082111561380057600080fd5b818501915085601f83011261381457600080fd5b81358181111561382357600080fd5b86602082850101111561383557600080fd5b60209290920196919550909350505050565b600081518084526020808501945080840160005b838110156135b85781516001600160a01b03168752958201959082019060010161385b565b6020815260006132566020830184613847565b600080604083850312156138a657600080fd5b50508035926020909101359150565b6040815260006138c86040830185613847565b6020838203818501528185518084528284019150828160051b85010183880160005b8381101561391857601f1987840301855261390683835161376a565b948601949250908501906001016138ea565b50909998505050505050505050565b80356001600160a01b0381168114611e2257600080fd5b60006020828403121561395057600080fd5b61325682613927565b6000806040838503121561396c57600080fd5b8235915061397c60208401613927565b90509250929050565b60006020828403121561399757600080fd5b81356001600160401b038111156139ad57600080fd5b612e85848285016135f4565b8215158152604060208201526000612e85604083018461376a565b6000806000606084860312156139e957600080fd5b833592506139f960208501613927565b9150604084013590509250925092565b838152606060208201526000613a22606083018561376a565b905060018060a01b0383166040830152949350505050565b634e487b7160e01b600052601160045260246000fd5b80820180821115610fa757610fa7613a3a565b600181811c90821680613a7757607f821691505b602082108103613a9757634e487b7160e01b600052602260045260246000fd5b50919050565b80358015158114611e2257600080fd5b60008060008060808587031215613ac357600080fd5b613acc85613a9d565b9350613ada60208601613a9d565b9250613ae860408601613a9d565b9396929550929360600135925050565b60208082526015908201527423b0b6b29034b99039ba34b6361030b1ba34bb329760591b604082015260600190565b634e487b7160e01b600052603260045260246000fd5b600060018201613b4f57613b4f613a3a565b5060010190565b60208082526013908201527223b0b6b29034b9903737ba1030b1ba34bb329760691b604082015260600190565b81810381811115610fa757610fa7613a3a565b600082613bb357634e487b7160e01b600052601260045260246000fd5b500690565b60208152815160208201526020820151604082015261ffff60408301511660608201526000606083015163ffffffff80821660808501528060808601511660a0850152505060a083015160c080840152612e8560e084018261376a565b600060208284031215613c2757600080fd5b5051919050565b601f82111561095857600081815260208120601f850160051c81016020861015613c555750805b601f850160051c820191505b81811015613c7457828155600101613c61565b505050505050565b81516001600160401b03811115613c9557613c956135de565b613ca981613ca38454613a63565b84613c2e565b602080601f831160018114613cde5760008415613cc65750858301515b600019600386901b1c1916600185901b178555613c74565b600085815260208120601f198616915b82811015613d0d57888601518255948401946001909101908401613cee565b5085821015613d2b5787850151600019600388901b60f8161c191681555b5050505050600190811b01905550565b818103613d46575050565b613d508254613a63565b6001600160401b03811115613d6757613d676135de565b613d7581613ca38454613a63565b6000601f821160018114613da95760008315613d915750848201545b600019600385901b1c1916600184901b178455613e0e565b600085815260209020601f19841690600086815260209020845b83811015613de35782860154825560019586019590910190602001613dc3565b5085831015613e015781850154600019600388901b60f8161c191681555b50505060018360011b0184555b5050505050565b60008154613e2281613a63565b808552602060018381168015613e3f5760018114613e5957613e87565b60ff1985168884015283151560051b880183019550613e87565b866000528260002060005b85811015613e7f5781548a8201860152908301908401613e64565b890184019650505b505050505092915050565b604081526000613ea56040830185613e15565b8281036020840152613eb78185613e15565b95945050505050565b634e487b7160e01b600052602160045260246000fd5b6001600160401b038616815260a060208201526000613ef860a083018761376a565b61ffff9590951660408301525063ffffffff92909216606083015260809091015292915050565b8082028115828204841417610fa757610fa7613a3a565b600081613f4557613f45613a3a565b506000190190565b600181815b80851115613f88578160001904821115613f6e57613f6e613a3a565b80851615613f7b57918102915b93841c9390800290613f52565b509250929050565b600082613f9f57506001610fa7565b81613fac57506000610fa7565b8160018114613fc25760028114613fcc57613fe8565b6001915050610fa7565b60ff841115613fdd57613fdd613a3a565b50506001821b610fa7565b5060208310610133831016604e8410600b841016171561400b575081810a610fa7565b6140158383613f4d565b806000190482111561402957614029613a3a565b029392505050565b60006132568383613f9056fea264697066735822122094ce4afc03753df06713a7f661b2843f86b33464673f8d53c65a0cd2ffb28ce564736f6c63430008140033",
        "linkReferences": {}
    },
    "methodIdentifiers": {
        "acceptOwnership()": "79ba5097",
        "checkUpkeep(bytes)": "6e04ff0d",
        "claimNFT(uint256)": "fe5c873a",
        "convertAddressToString(address)": "5ab59312",
        "createGame(uint256,uint256)": "60104cef",
        "createGameDefault()": "c0722c99",
        "createGameWithInterval(uint256)": "0411ac75",
        "depositNFT(uint256,address,uint256)": "7d6f643b",
        "endGame(uint256)": "d0399bb8",
        "fulfillWinnerMt(uint256,uint256)": "47828219",
        "fulfillWinners(uint256)": "8a8da05b",
        "games(uint256)": "117a5b90",
        "getGameCreator(uint256)": "7ad40c86",
        "getGameEndTime(uint256)": "ee7bdc4f",
        "getGameIsActive(uint256)": "185e2187",
        "getGameParticipantScore(uint256,address)": "6f6410fd",
        "getGameParticipants(uint256)": "45fa9549",
        "getGameScores(uint256)": "55985b8f",
        "getGameStartTime(uint256)": "b131d053",
        "getLastRandomWords()": "3c256b24",
        "getLastRequestId()": "19c2b4c3",
        "getLastResponse()": "503f0475",
        "getLastScoreRequest()": "5455d59c",
        "getScoreResponse(bytes32)": "d03ae0aa",
        "getVrfRequestStatus(uint256)": "07119431",
        "getWinners(uint256)": "6b1426a4",
        "handleOracleFulfillment(bytes32,bytes,bytes)": "0ca76175",
        "joinGame(uint256)": "efaa55a0",
        "nextGameId()": "b135bbb0",
        "owner()": "8da5cb5b",
        "pause()": "8456cb59",
        "paused()": "5c975abb",
        "performUpkeep(bytes)": "4585e33b",
        "rawFulfillRandomWords(uint256,uint256[])": "1fe543e3",
        "reclaimNFT(uint256)": "a08db82e",
        "requestRandomWords(uint256)": "bc85777c",
        "requestScoreForParticipant(uint256,address)": "6554e38a",
        "s_lastError()": "4b0795a8",
        "s_lastRequestId()": "b1e21749",
        "s_lastResponse()": "3944ea3a",
        "s_vrfCoordinator()": "9eccacf6",
        "s_vrfRequests(uint256)": "2da27092",
        "setCoordinator(address)": "8ea98117",
        "transferOwnership(address)": "f2fde38b",
        "unpause()": "3f4ba83a",
        "vrfLastRequestId()": "7d058d4f",
        "vrfRequestIds(uint256)": "425c9fa2"
    },
    "id": 1
}